:020000040800F2
:10000000587F002469040008CF8B00080D72000897
:10001000CD8B0008411E0008D9B200080000000086
:10002000000000000000000000000000A90300081C
:100030002123000800000000050400083D9E000880
:100040008704000887040008870400088704000864
:100050008704000887040008870400088704000854
:10006000870400088704000887040008451E00086C
:10007000511E00085D1E0008691E0008751E00085C
:10008000811E000887040008870400088704000810
:100090008704000887040008870400088704000814
:1000A0008704000887040008870400088704000804
:1000B00087040008870400088704000887040008F4
:1000C00087040008870400088704000887040008E4
:1000D00087040008A9B20008B5B20008C1B2000840
:1000E0008704000887040008000000008704000857
:1000F00087040008870400088704000887040008B4
:1001000087040008870400088704000887040008A3
:100110002DA4000839A4000805A0000887040008E1
:100120008D1E000887040008991E00088704000837
:100130008704000887040008870400088704000873
:1001400000000000000000000000000000000000AF
:10015000870400088704000887040008CDB200085F
:100160008704000887040008870400088704000843
:100170008704000887040008870400088704000833
:10018000870400088704000845A4000851A400085B
:100190008704000887040008870400088704000813
:1001A0008704000887040008870400088704000803
:1001B00087040008870400088704000811720008FB
:1001C00087040008870400088704000887040008E3
:1001D00087040008870400088704000887040008D3
:1001E00087040008870400088704000887040008C3
:1001F00087040008870400088704000887040008B3
:1002000087040008870400088704000887040008A2
:100210008704000887040008870400088704000892
:100220008704000887040008870400080000000015
:100230008704000887040008000000008704000805
:100240008704000887040008870400088704000862
:100250008704000887040008870400088704000852
:100260008704000887040008870400088704000842
:1002700087040008870400088704000800000000C5
:1002800087040008870400088704000800000000B5
:10029000000000008704000800F002F800F075F884
:1002A0000AA090E8000C82448344AAF10107DA45D1
:1002B00001D100F06AF8AFF2090EBAE80F0013F0AE
:1002C000010F18BFFB1A43F00103184778450100DE
:1002D000984501000A444FF0000C10F8013B13F060
:1002E000070408BF10F8014B1D1108BF10F8015B8F
:1002F000641E05D010F8016B641E01F8016BF9D182
:1003000013F0080F1EBF10F8014BAD1C0C1B09D1D8
:100310006D1E58BF01F801CBFAD505E014F8016B4A
:1003200001F8016B6D1EF9D59142D6D370470000DC
:100330000023002400250026103A28BF78C1FBD8EE
:10034000520728BF30C148BF0B607047662912F0C2
:100350001085642900F02082732900F0E6860020D1
:1003600070471FB512F000FD9DE8030000F0FCFB94
:1003700000F0E4FE04000020002112F0DFFCE06049
:1003800000F0C4FB1FBD10B510BD00F0F9FF114611
:10039000FFF7E7FF10F09CFB01F017F803B4FFF73D
:1003A000F2FF03BC01F07CF82C4B19680868B0E838
:1003B000F04F80F30988BFF36F8F4FF0000080F398
:1003C000118870470000000008480068006880F34A
:1003D00008884FF0000080F3148862B661B6BFF35E
:1003E0004F8FBFF36F8F00DF00BF00BF08ED00E04D
:1003F000DFF80C00016841F470010160704700BF34
:1004000088ED00E0EFF30980BFF36F8F134B1A689C
:100410001EF0100F08BF20ED108A20E9F04F106089
:1004200009B44FF0500080F31188BFF34F8FBFF332
:100430006F8F11F03FFF4FF0000080F3118809BC6F
:1004400019680868B0E8F04F1EF0100F08BFB0EC54
:10045000108A80F30988BFF36F8F70472C00002447
:10046000EFF30580704700000A4880470A4880473C
:100470000A480047FEE7FEE7FEE7FEE7FEE7FEE785
:10048000FEE7FEE7FEE7FEE705480649064A074B9A
:1004900070470000592300080D9F000899020008CA
:1004A00058790024587F0024587B0024587B00246E
:1004B00070B5064600F03CFB056806F10B0020F025
:1004C0000704B4429CBF002070BD2B466A68BAB1D5
:1004D0001068A04210D304F1080188423CBF506864
:1004E000586007D35168101941601168091B0160F9
:1004F00058601460101D70BD13465268002AE7D181
:100500002146284600F01CFB0028DED170BD70B5E6
:100510000446051F00F00CFB0068002C14BF446863
:1005200070BD002C18BFAC423CBF20466468F8D3B5
:1005300001680A18AA4218BF456003D12A68054617
:100540001144016028684119A1421CBF6C6070BD54
:100550006168696021680844286070BD53EA020C34
:1005600000F069802DE9F04B4FF00006002B1FBF13
:10057000B3FA83F503FA05F424FA05F65E4012BFD8
:100580001643B2FA82F502FA05F4C5F120051EBF42
:1005900022FA05FC44EA0C04203556EA044C4FEAE2
:1005A000144418BF641C4FF000084FF0000990423B
:1005B00071EB030C39D3002919BFB1FA81F701FAA5
:1005C00007F6B0FA80F700FA07F6C7F120071EBF5A
:1005D00020FA07FC46EA0C062037B6FBF4FCA7EB32
:1005E0000507103F07F01F0BCBF120060CFA0BFBA1
:1005F0002CFA06F644BFB3460026202FA4BF5E4661
:100600004FF0000B5BEA060C08BF4FF0010B19EB33
:100610000B09ABFB027C48EB0608C01B06FB02CCB7
:100620000BFB03CC71EB0C01C1E70B4602464146C4
:100630004846BDE8F08B13B54FF000004FF00001C5
:10064000AFF30080BDE81C40704710B54C1084EA41
:10065000530404D54042C1F1000138BF491E1B427A
:1006600004D55242C3F1000338BF5B1EFFF776FF8B
:1006700014F0804F04D04042C1F1000138BF491E40
:1006800014F0004F04D05242C3F1000338BF5B1E88
:1006900010BD00000FB41CB5084B06AA7B44694688
:1006A0000090059800F00FFD04460020694600F018
:1006B0001DFD20461CBC5DF814FB00004D0A000027
:1006C0000FB47CB50C0009AA009001D02044401E54
:1006D000084B7B4469460190089800F0F4FC0546FD
:1006E0001CB10020694600F001FD28467CBC5DF885
:1006F00014FB0000210A000070B5044685690068FB
:10070000C10601D5302600E02026C00707D070BD05
:10071000D4E9012130469047206A401C20626D1EBA
:10072000F6D570BD70B5044685690078C00707D15D
:1007300070BDD4E9012120209047206A401C20622E
:100740006D1EF6D570BD70B50C460546012A05D064
:100750002878800600D5EA69002302E0012305E03D
:100760005B1C934202D2E05C0028F9D1A869E6182C
:10077000C01AA861286A184428622846FFF7BCFFFF
:1007800004E0D5E9012114F8010B9047B442F8D3F5
:100790002846FFF7C7FF70BD2DE9F041064600244B
:1007A00010687529314616A510D0AFF300800028D7
:1007B00002DA404213A507E031688A0701D512A585
:1007C00002E0490704D511A5012401E0AFF3008040
:1007D00000210A2206F1240709E0B0FBF2FCB0FB7D
:1007E000F2F302FB1C00303078541846491C0028F4
:1007F000F3D123462A463046BDE8F04100F0F5B972
:10080000000000002D0000002B0000002000000070
:100810002DE9F0474FF0000A89460446C0F820A0B1
:100820002046E1688847002876D0252806D0D4E9FC
:1008300001219047206A401C2062F1E7E1682046D0
:1008400000258847C4F81CA006460027C4F818A055
:100850002A2E09D030460EF09FFF38B304EB8708EC
:10086000303EC8F8186019E059F8041B204604EB24
:1008700087029161E1688847012F064618D1E06937
:10088000002820DA25F020051DE0D8F8180000EB3C
:10089000800006EB40003038C8F818002046E168B8
:1008A000884706460EF078FF0028EED1012F0AD0C7
:1008B0002E2E08D12046E16888477F1C0646022F6D
:1008C00045F02005C4DBA069002803DA404245F06A
:1008D0000105A061E80701D025F01005B6B1A6F129
:1008E0004100192802D8203645F400654A463146B1
:1008F000204625604D46FFF729FD58B1012806D056
:10090000ED1D25F0070000F1080989E704E005F175
:10091000040985E730468AE7206ABDE8F08740EAA7
:10092000010310B59B070FD1042A0DD310C808C9C5
:10093000121F9C42F8D020BA19BA884201D901206E
:1009400010BD4FF0FF3010BD1AB1D30703D0521CB9
:1009500007E0002010BD10F8013B11F8014B1B1BF4
:1009600007D110F8013B11F8014B1B1B01D1921E5E
:10097000F1D1184610BD032A40F2308010F0030C6C
:1009800000F0158011F8013BBCF1020F624498BFE2
:1009900011F801CB00F8013B38BF11F8013BA2F17F
:1009A000040298BF00F801CB38BF00F8013B11F0FA
:1009B000030300F02580083AC0F0088051F8043B9A
:1009C000083A51F804CBA0E80810F5E7121D5CBF07
:1009D00051F8043B40F8043BAFF30080D20724BF3A
:1009E00011F8013B11F801CB48BF11F8012B24BFCE
:1009F00000F8013B00F801CB48BF00F8012B70471D
:100A000010B5203AC0F00B80B1E81850203AA0E8A9
:100A10001850B1E81850A0E81850BFF4F5AF5FEADD
:100A2000027C24BFB1E81850A0E8185044BF18C990
:100A300018C0BDE810405FEA827C24BF51F8043B37
:100A400040F8043B08BF7047D20728BF31F8023B8B
:100A500048BF11F8012B28BF20F8023B48BF00F81F
:100A6000012B704702F0FF0343EA032242EA0242ED
:100A700000F002B84FF000020429C0F0128010F01C
:100A8000030C00F01B80CCF1040CBCF1020F18BF6A
:100A900000F8012BA8BF20F8022BA1EB0C0100F0FD
:100AA0000DB85FEAC17C24BF00F8012B00F8012BD0
:100AB00048BF00F8012B70474FF0000200B5134605
:100AC00094469646203922BFA0E80C50A0E80C506E
:100AD000B1F12001BFF4F7AF090728BFA0E80C501F
:100AE00048BF0CC05DF804EB890028BF40F8042B18
:100AF00008BF704748BF20F8022B11F0804F18BF85
:100B000000F8012B704770477047704770B5064C6E
:100B10007C44064D7D4403E0206820448047241D2A
:100B2000AC42F9D170BD00006C3D0100703D010088
:100B300000487047FC780024704770477047704742
:100B400038B504460A4600206946AFF30080002805
:100B500008BF38BD02460099204600F0F7FA012090
:100B600038BD012000F004BCF8B5AFF300800546A5
:100B700000200C46102000BF0646A819A0420DD93F
:100B8000324669460020AFF30080070008BF00F03E
:100B9000EFFB0098A04218BF0546C419FFF7C8FF35
:100BA00005600746F01D20F007004619284600F0B2
:100BB0000AF8B44208BFF8BDA21B31463868BDE848
:100BC000F84000F0C3BA00210160C0E9011070478D
:100BD0001020704710B500F0B5FA006810BD10B5D0
:100BE000044600F0AFFA046010BD2DE9F0470D4651
:100BF00099469246044600F124080168880604D507
:100C0000E06921F01001216000E00120A84201DD2F
:100C1000471B00E00027A1697A1902EB0900081AB6
:100C2000A0612078C00602D42046FFF765FD0026AB
:100C300008E0D4E901211AF806009047206A401C18
:100C4000761C20624E45F4DB2078C0060AD520468B
:100C5000FFF752FD06E0D4E9012130209047206AD9
:100C6000401C2062381EA7F10107F4DC07E0D4E93C
:100C7000012118F805009047206A401C2062281EB8
:100C8000A5F10105F3DC2046FFF74CFD20780006B6
:100C900002D50220BDE8F0870120FBE770472DE96F
:100CA000FF4F0C461E464FF0FF378BB0D2E90001D4
:100CB000DDF860800A908A46C1F30A5505B93D46C1
:100CC000002108464FF00000BAF1000F00F4400088
:100CD00005DA00EB80004FF4400101EA50004FEAD2
:100CE0009059B9F1010F00DDB9460A9850EA4A005F
:100CF0000ED044F61050A5F2FF3545432F14B8F13D
:100D0000000F1ED07542291E1EDDC9F100021CE035
:100D1000B8F1010F4FF0000001D0302103E0F243A1
:100D200005E02154401CB042FBDB3046002200218C
:100D300021540B99C1F80880C1E900200FB0BDE82B
:100D4000F08FBD1B6D1CDEE74A4600DA694206A83B
:100D500000F09CFA06AB93E8070003AB83E80700BA
:100D600050460A9900F0C2FB8DE80700A0F500503C
:100D70001F3800900398002D0ADD42F21F014A46F9
:100D80000844002303A90390684600F02BFE09E005
:100D9000A0F500504A461F38002303A90390684677
:100DA00000F035FE8DE807000004000C03D04FF082
:100DB000FF30410800E01046B8F1000F03D00022D8
:100DC000009215461EE0751E05D400F0D9F93032A8
:100DD00062556D1EF9D5B3460122084302D00022A8
:100DE0007F1C04E02078302801D100227F1E002AD9
:100DF000099784D01DE0112D07DA00F0C1F93032D7
:100E000062556D1C50EA0102F5D1084302D00098EA
:100E1000C8B10EE00021681E05E0235C625C6354EB
:100E20002254401E491C8142F7DBAB46A81B401EE2
:100E30000990002004F80B000B98099AC0F808806C
:100E4000C0E9002B7AE711264FF0000857E72DE99B
:100E5000F04F88460446D21D22F0070191B0D1E937
:100E60000001CDE90A010CF0D3FF02460B98C00F38
:100E700001D02D2007E02068810701D52B2002E05A
:100E8000202101EAC000032A099001D0072A05DBCE
:100E900003464146204600F0B9F90BE12078800670
:100EA00001D5E06900E00620B8F1650F814606D063
:100EB000B8F1660F18D0B8F1670F70D131E000209B
:100EC000B9F1110F009001DB112301E009F10103D9
:100ED0000AAA01A90CA8FFF7E2FEDDE90C700026C2
:100EE00009F10105834647E001204B4600904FF091
:100EF00000470AAA01A90CA8FFF7D1FEDDE90DB051
:100F00000C995D46002610B909F101000D18B9EBE6
:100F1000050003D4C0F1FF3609F10105A5EB090076
:100F20002BE0B9F1010F01DA4FF001090020B9F10E
:100F3000110F0090484601DD112300E003460AAA84
:100F400001A90CA8FFF7ABFEDDE90C704D460026A9
:100F50008346207800070AD4AB4500DA5D4601A835
:100F6000012D04DD411911F8011C302907D04F452E
:100F700002DA17F1040F04DA012082460FE06D1E39
:100F8000EEE7002F02DCED1B3E4403E0781CA84294
:100F900000DD7D1CB81B00F1010A4FF000472078EE
:100FA000000703D4AA4501DB4FF0FF3A0021B7F157
:100FB000004F0DF143088DF8431024D002202B235D
:100FC000002F01DA7F422D230A21021EA0F1010029
:100FD00000DC5FB197FBF1FC97FBF1F201FB1C7C9D
:100FE00017460CF1300C08F801CDEEE7A8F101002E
:100FF00003702188090501D5452100E06521A0F194
:10100000010800F8011C09980FA9A1EB0807FF1DB2
:1010100000B10120411901EBEA70A1693844081AB6
:10102000401EA0612078C00602D42046FFF764FB72
:10103000099828B1D4E901219047206A401C206218
:101040002078C00622D52046FFF756FB1EE0002E72
:1010500004DBB34502DD01A8805D00E03020D4E967
:1010600001219047206A401C2062761CAAF10100F1
:101070005FEA000A0AD100F061F8C0680168405CCC
:10108000D4E901219047206A401C2062281EA5F166
:101090000105DCDC07E0D4E9012118F8010B9047D9
:1010A000206A401C2062381EA7F10107F3DC2046AD
:1010B000FFF738FB032011B041E6000001694A1C2C
:1010C00002610878704700B58FB0CDE90131002189
:1010D000059105497944CDE9031011466846FFF7AB
:1010E00097FB0FB000BD0000E5FFFFFF0A6802F8A4
:1010F000010B0A607047D1E900239A4202D2531CC7
:101100000B601070704710B5436913B1AFF30080E6
:1011100001E0FFF718FB012010BD127800F1240157
:101120000A7000224A700122EDE711684FF0FF3289
:10113000E9E7000000487047F47800240048704751
:101140001479002400487047F4780024034640686E
:101150008C46002818BF88423CBF03464068F8D33D
:1011600018681844884207D00CF1030020F00700EB
:10117000001D411A521A0146081D0A60FFF7C7B93F
:1011800030B5B0F10A024FEA900E71F100034EEA59
:10119000817EB0EB0E0061EB91014FEA101E4EEA2A
:1011A000017E10EB0E0041EB11114FEA102E4EEABA
:1011B000016E10EB0E0041EB11214FEA104E4EEA8A
:1011C000014E10EB0E0041EB1141401841F10001BE
:1011D0004FEAD00040EA41704FEAD10110EB8005A0
:1011E0004FEA810444EA907444EB01046D1944EB26
:1011F0000404521BA3414FF0000348BF0A3200D53C
:1012000030BD401C41F1000130BD00002DE9F0412E
:101210001F46044603260168072A01F4006004DB28
:1012200008B116A505E016A503E008B115A500E074
:1012300015A521F010002060A069C01EA0610FB1AB
:10124000401EA0612046FFF757FA4FB1D4E90121B3
:1012500038469047206A401C2062C01C206206E08D
:10126000206AFAE7D4E9012115F8010B9047761EB0
:10127000F8D22046FFF756FABDE8F0814E414E0005
:101280006E616E00494E4600696E66002DE9F047BA
:10129000814616468AB0354878440DC88DE80D0061
:1012A00032487844801C03AC0DC884E80D0041F638
:1012B0009B300844372190FBF1F290FBF1F5A5F14A
:1012C000800501FB12041B3C02D56442012000E0B2
:1012D0000020DFF898A080460027FA44AAF1BE0A51
:1012E0000EE0E0070AD03246684607EB47010123CB
:1012F0000AEB810100F08BFB8DE8070064107F1C76
:10130000002CEED1194F7F44AE3F19E0E80715D00D
:1013100007EB04100DF1180A90E80E008AE80E00A1
:10132000C068F04201D1981908903246012306A9FD
:1013300003A800F06CFB03AB83E807006D10641C8E
:10134000002DE3D14FF0010332466946B8F1000F9A
:1013500003A802D000F046FB01E000F058FBC9E909
:101360000001C9F808200AB0BDE8F0875035010037
:1013700010B500F039F8BDE8104000F02FB8704704
:101380007546FFF7D7FEAE4605006946534620F086
:101390000700854618B020B5FFF776F8BDE8204075
:1013A0004FF000064FF000074FF000084FF0000B21
:1013B00021F00701AC46ACE8C009ACE8C009ACE8D4
:1013C000C009ACE8C0098D46704710B50446AFF3BC
:1013D00000802046BDE81040FEF7E0BF002801D0A5
:1013E00000F05EB87047000010B5012805D000215C
:1013F00003A000F05BF8012010BD09A1F8E7000090
:1014000053494752544D454D3A204F7574206F66ED
:101410002068656170206D656D6F72790000000055
:101420003A2048656170206D656D6F727920636F39
:1014300072727570746564004FF0013C50F8042BB3
:1014400051F8043B9A4215D1A2EB0C03934313EAE3
:10145000CC130BD150F8042B51F8043B9A4209D11C
:10146000A2EB0C03934313EACC13E7D04FF0000038
:10147000704700BFD01A01BAB1FA81F101F018012A
:1014800022FA01F0CB40C1F12001DBB2C0B2C01A98
:101490002CFA01F3D11A914311EAC311E6D1704736
:1014A00001491820ABBEFEE72600020070B50546D4
:1014B0000C460A2000E06D1C00F011F835B12878C8
:1014C0000028F8D102E0641C00F009F814B120787B
:1014D0000028F8D1BDE870400A20AFF3008008B5BD
:1014E00069468DF800000320ABBE08BD5FEA400CE2
:1014F00008BF91F0000F4FEA8C234FEAC12243EA64
:1015000051514FEA1C5018BF00F5F0404FEA30002F
:1015100018BF41F000415FEA6C5C00F02980BCF12B
:10152000FF3F08BF40F080407047130C06BF120415
:101530004FF0100C4FF0000C130E04BF12020CF110
:10154000080C130F04BF12010CF1040C930F04BF1D
:1015500092000CF1020CD30F04BF52000CF1010CED
:1015600011464FF00002A0F11F00A0EB0C007047E5
:1015700011F0004F08BF704731F000413FF4D5AF84
:101580000B0C06BF09044FF0100C4FF0000C0B0EB3
:1015900004BF09020CF1080C0B0F04BF09010CF188
:1015A000040C8B0F04BF89000CF1020CCB0F04BF9D
:1015B00049000CF1010CCCF12003A0EB0C0022FA45
:1015C00003F302FA0CF241EA030100F10100704753
:1015D00020F07F4C80EA030023F07F47ACEB070349
:1015E00003F57C5300F0004003F1FF032DE980492F
:1015F0004FEA154B09B44FEA144325EA0B4E24EA8F
:1016000003480FF2042606EB132749083E785FEAE9
:10161000320203FB0667C7F5000707FB06F64FEA31
:1016200054374FEAD64606F1020607FB066CCCF1AA
:10163000005C4FEA1C472CEA074C07FB06F40CFB46
:1016400006F504EB15464FEA961634BF00204FF01E
:1016500000404FEAD13706FB07FC4FEA1C4C0CFB5D
:101660000BF7D21B03FB0CF761EB07010CFB0EF72A
:10167000B0EB074072EB17420CFB08F734BFA2EB4C
:101680000742B2EB074261EB17414FEA0C444FEAC5
:10169000910706FB07FC4FEA1C4C0CFB0BF7B0EB69
:1016A000C74072EB573203FB0CF734BFA2EBC742C3
:1016B000B2EBC74261EB57310CFB0EF7B0EBC70042
:1016C00072EB57720CFB08F734BFA2EBC702B2EB08
:1016D000C70261EB5771039F4FEA816141EA9211A2
:1016E00004EBCC044FEAD1374FEA826206FB07FCD9
:1016F00042EA90124FEA80604FEA1C4C0CFB0BF759
:10170000D21B03FB0CF761EB07010CFB0EF7B0EBF0
:10171000074072EB17420CFB08F734BFA2EB0742FD
:10172000B2EB074261EB17414FEA8C554FEA910744
:1017300004EB9C2406FB07FC4FEA1C4C0CFB0BF74C
:10174000B0EBC74072EB573203FB0CF734BFA2EB90
:10175000C742B2EBC74261EB57310CFB0EF7B0EB5F
:10176000C70072EB57720CFB08F734BFA2EBC7023D
:10177000B2EBC70261EB577115EB4C254FEA816163
:1017800041EA92114FEA82624FEAD13742EA90125F
:1017900006FB07FC44F100044FEA80604FEA1C4C52
:1017A0000CFB0BF7D21B03FB0CF761EB07010CFBE7
:1017B0000EF7B0EB074072EB17420CFB08F734BF93
:1017C000A2EB0742B2EB074261EB174115EB1C1588
:1017D0004FEA813141EA92414FEA823242EA904235
:1017E0004FEA80304FEA0C7644F1000448EA0343A4
:1017F0004EEA0B484FF0000EB2EB080C71EB0307FA
:1018000024BF624639464EEB0E0E4FF0000B001817
:10181000524149414BEB0B0BB2EB080C71EB030748
:101820007BF1000B24BF624639464EEB0E0E4FF0A3
:10183000000B0018524149414BEB0B0BB2EB080C6B
:1018400071EB03077BF1000B24BF624639464EEB78
:101850000E0E51EA020718BF46F0010616EB0E768F
:1018600055F1000254F1000103D5BDE88901BDE83E
:101870000088BDE88901BDE80048B619524141EB36
:101880000101A3F10103704780807F7E7D7C7B7A1C
:101890007978777676757473727171706F6E6E6D1C
:1018A0006C6C6B6A6A6968686766666564646363C2
:1018B00062616160605F5F5E5E5D5D5C5C5B5B5A48
:1018C0005A595958585757565655555554545353B5
:1018D00052525251515050504F4F4F4E4E4D4D4D10
:1018E0004C4C4C4B4B4B4A4A4A494949484848475B
:1018F0004747474646464545454444444443434399
:101900004342424242414141002B9C4630D4770041
:101910002BD01CB54FEA370703B44FF010004FF03F
:101920001001BAF1000F06D0BCF1000FDCBF40F08F
:10193000080040F008014FF000000FBCBDE8104067
:101940000BF1010BBBF1010F08BF5FEA170722BFC4
:1019500012F1010211F101014FF0004143F10003C6
:1019600000F0004043EA00007047F9D35708D0E781
:1019700046EA064613F1400F4FEA16461FDD13F103
:10198000200FDFBF16430A46002120335B42BED042
:10199000C3F1200746EA064602FA07F74FEA164661
:1019A00046EA0706C3F1200722FA03F201FA07F715
:1019B00021FA03F14FF0000342EA0702A7E746EAE3
:1019C000020646EA06464FEA164646EA0106BCBF4C
:1019D00046EA0646360C4FF000034FF000024FF087
:1019E000000194E72DE9804C9A46934670B491E843
:1019F000380007C831EA400C48BF34EA430C03D52D
:101A0000FFF7E6FDFFF780FFF0BCBDE8008C2DE995
:101A1000804C9A46934670B491E8380007C810F09D
:101A2000804F08BF13F0804F03D100F005F8FFF797
:101A30006BFFF0BCBDE8008C20F07F4780EA03001C
:101A400023F07F4C07EB0C03A3F57C5300F0004020
:101A5000A3F1FE0392F0000F00F0B38095F0000FA9
:101A600000F077802DE901494FEA11404FEA144612
:101A700021EA004800FB06FC24EA064708FB06F6BC
:101A800007FB08F800FB07F718EB06484CEB164C71
:101A90004FEA124B18EB07484FEA15464CEB17403C
:101AA00022EA0B4E0BFB06FC25EA06470EFB06F668
:101AB00007FB0EFE0BFB07F71EEB064E4CEB164C1E
:101AC0004FF000061EEB074E4CEB174B18EB0B08C4
:101AD00040F1000018EB0E0B58EB000840F100003D
:101AE0008F1A4FF000013CBFC943661B14BFB5EB12
:101AF000040C00213CBFC943F61B4FEA17444EEAD1
:101B00008E0E27EA04454FEA1C4704FB07622CEAC5
:101B1000074C05FB07F70CFB05F604FB0CFC16EB6A
:101B2000074642EB174216EB0C4642EB1C421BEBFE
:101B3000060658EB0202414146EA9E0601D5BDE881
:101B40000189B619524141EB0101A3F10103BDE83E
:101B500001894FEA14454FEA114724EA054621EA74
:101B6000074C05FB07F406FB07F70CFB06F105FB2A
:101B70000CFC11EB074144EB17444FEA124711EB01
:101B80000C4144EB1C4422EA074C05FB07F206FB20
:101B900007F70CFB06F605FB0CFC16EB074642EBC1
:101BA000174216EB0C4642EB1C456A1854F1000133
:101BB00048BF7047B619524141EB0101A3F101033F
:101BC000704795F0000F37D04FEA11424FEA1447A3
:101BD00021EA024624EA074C02FB07F106FB07F75D
:101BE0000CFB06F402FB0CFC14EB074441EB174121
:101BF0004FEA154714EB0C4441EB1C4125EA074C16
:101C000002FB07F506FB07F70CFB06F602FB0CFCD4
:101C100016EB074645EB174516EB0C4645EB1C4209
:101C2000121951F1000148BF7047B619524141EBFA
:101C30000101A3F1010370474FEA14454FEA114730
:101C400024EA054621EA074C05FB07F106FB07F7E6
:101C50000CFB06F24FF0000605FB0CFC12EB0742F2
:101C600041EB174112EB0C4251EB1C4148BF70474E
:101C7000921841EB0101A3F1010370479FED030AA4
:101C8000B0EE401AF0EE400A0AF0FCBB0000000083
:101C9000B7EE000A80ED020A704700009FED030ACC
:101CA000B0EE401AF0EE400A0CF02AB80000000036
:101CB0009FED030AB0EE401AF0EE400A0CF020B897
:101CC0000000000070B5282104463448FEF7F4FEF9
:101CD000324A0020324908230C3A04251060506033
:101CE00090604880486008700221226801201362D9
:101CF0002268156222681162216808622822274939
:101D0000204604F09CFBD4F88000264900688842F5
:101D10003AD024491831884236D02249303188429D
:101D200032D02049483188422ED01E496031884245
:101D30002AD01C497831884226D01A4990318842ED
:101D400022D01849A83188421ED0174988421BD09A
:101D500015491831884217D013493031884213D0C1
:101D60001149483188420FD00F49603188420BD069
:101D70000D497831884207D00B499031884203D011
:101D80000949A831884203D1016821F0080102E025
:101D9000016821F00401016070BD0000747300242B
:101DA0000C010024100002401004024000221146E1
:101DB00010B5435C491C07291A44D2B2F9DBC1793A
:101DC00091421AD10E4C4178217081786170C178AE
:101DD000A1700179E170417921718079607101F020
:101DE00099FD08490122A0600A704A88A2F57F4047
:101DF000FF3803D04888401C488010BD0020FBE716
:101E0000687300240C01002410B501F083FD0A4919
:101E10000A78002A0FD0094A9268821AB2F5967F92
:101E200003D900220A704A8004E04A68821AB2F597
:101E3000FA6F00D3486010BD0C01002468730024C1
:101E4000FEE70000014800F089BD0000CC0C002432
:101E5000014800F083BD0000640B0024014800F03D
:101E60007DBD0000DC0B0024014800F077BD0000C0
:101E7000540C0024014800F071BD0000EC0A00245D
:101E8000014800F06BBD0000740A0024014800F016
:101E900065BD0000FC090024014800F05FBD0000A2
:101EA000440D0024294A016891423AD0274A183249
:101EB000914236D0254A3032914232D0234A4832BC
:101EC00091422ED0214A603291422AD01F4A783264
:101ED000914226D01D4A9032914222D01B4AA8320C
:101EE00091421ED01A4A91421BD0194A183291428F
:101EF00017D0174A3032914213D0154A48329142D6
:101F00000FD0134A603291420BD0114A783291427D
:101F100007D00F4A9032914203D00D4AA832914225
:101F200011D1CAB21823103AB2FBF3F26FF30901D0
:101F3000032A02F00703074AD25CC26500D9091DD3
:101F400081650846704721F0FF01F9E71000024063
:101F500010040240142E010830B5224A0123016802
:101F60009142CAB21BD01F4C1434A14217D01D4C51
:101F70002834A14213D01B4C3C34A1420FD0194C41
:101F80005034A1420BD0174C6434A14207D0154CF9
:101F90007834A14203D0134C8C34A1420CD11421CB
:101FA000114C083AB2FBF1F10F4A803201F01F05E3
:101FB00004EB8101AB4010E00C4D1824103A0D44A5
:101FC000B2FBF4F1A82D00D80831094A01F01F0432
:101FD00002EB8101064AA3408032603080E80E00A7
:101FE00030BD00000854025800580258F0FBFDBFF5
:101FF0000008024010B50279531E072B2DD8174C4C
:102000000168A1421BD0154C1434A14217D0134CC7
:102010002834A14213D0114C3C34A1420FD00F4CB4
:102020005034A1420BD00D4C6434A14207D00B4C6C
:102030007834A14203D0094C8C34A14203D1084921
:10204000074C443102E00749064C443104EB82025C
:10205000C0E91B2101219940416710BD0854025875
:10206000FC580258FC08024010B583694FF0C07458
:10207000826A0146002053B1B3F5005F15D072B1FA
:10208000012A0CD0022A0AD0032A09D104E01AB18D
:10209000012A06D0022A03D1C96AC90100D501204C
:1020A00010BDC96AA142FAD010BD002AF7D0012A9A
:1020B000F2D0022AF3D0032AF3D010BD2DE9F04F5D
:1020C000804E804FDFF8FC911836DFF8F8A14837D2
:1020D0000468856D0AF1300ADFF8ECB14C45DFF891
:1020E000ECC1DFF8ECE16DD0B4426BD0544569D05F
:1020F000BC4267D0DFF8D081A8F11808444561D010
:102100005C455FD064455DD074455BD0DFF8C48129
:10211000444557D0DFF8BC8108F11808444551D038
:10212000DFF8B08108F1300844454BD0DFF8A481D6
:1021300008F14808444545D0DFF8988108F1600867
:1021400044453FD0DFF88C8108F17808444539D008
:10215000DFF8808108F19008444533D0DFF87481BE
:1021600008F1A80844452DD0DFF86C81444529D0FA
:10217000DFF8648108F11408444523D0DFF8588162
:1021800008F1280844451DD0DFF84C8108F13C08CF
:10219000444517D0DFF8408108F15008444511D07C
:1021A000DFF8348108F1640844450BD0DFF828815A
:1021B00008F17808444505D0DFF81C8108F18C0847
:1021C000444509D1D0E91948C4F80480C46E1CB153
:1021D000D0E91C48C4F8048004684C452ED0B442B1
:1021E0002CD054452AD0BC4228D0374E183EB44299
:1021F00024D05C4522D0644520D074451ED0354E95
:10220000B4421BD0334E1836B44217D0314E30365C
:10221000B44213D02F4E4836B4420FD02D4E603604
:10222000B4420BD02B4E7836B44207D0294E9036AC
:10223000B44203D0274EA836B44215D190F85C6062
:102240003F2406F01F06B440AC600468256825F4FE
:10225000802525602EE09A600068C160BDE8F08F9F
:1022600099600068C260F9E71B4EB4421BD01A4E59
:102270001436B44217D0184E2836B44213D0164E36
:102280003C36B4420FD0144E5036B4420BD0124EEE
:102290006436B44207D0104E7836B44203D00E4EA6
:1022A0008C36B442DAD190F85C60012406F01F0647
:1022B000B4406C60046863608368402B0368CFD1CE
:1022C000C9E700001000024088000240A000024060
:1022D000B800024010040240085402580E490F484A
:1022E0000A6822F080720A600B68002243F0807353
:1022F0000B60016821F001010160016841F00101FA
:102300000160426000BF00BF00BF406808B100200C
:102310007047012070470000FCED00E0001000E075
:102320007047000010B506F04BFBBDE810400249B5
:102330000122024804F0A2BE040100241807002470
:102340008AB24FF6FF730146014804F0BDBE00009B
:102350001807002472B6FEE70548054908390268E7
:1023600042F00202026008688004FCD57047000059
:102370000C4802582DE9F84F044601F0CBFA0090C2
:102380003CB194F83500022806D080216165002018
:10239000E4E00120BDE8F88FC74DC74EC6491835A7
:1023A00020683036DFF81483DFF814938842DFF8B2
:1023B00014A3DFF814B32ED0A8422CD0B0422AD0F8
:1023C000404528D0484526D0504524D0584522D0F5
:1023D000BD4A183290421ED0BC4A90421BD0BB4A24
:1023E0001832904217D0B94A3032904213D0B74ACF
:1023F000483290420FD0B54A603290420BD0B34A77
:102400007832904207D0B14A9032904203D0AF4A1E
:10241000A832904209D1026822F01E0202602068B0
:10242000426922F08002426103E0026822F00E025B
:10243000026027688F4238464DD0A8424BD0B04248
:1024400049D0404547D0484545D0504543D05845F0
:1024500041D09D4A183290423DD09C4A90423AD099
:102460009A4A1832904236D0984A3032904232D04E
:10247000964A483290422ED0944A603290422AD0F6
:10248000924A7832904226D0904A9032904222D09E
:102490008E4AA83290421ED08D4A90421BD08C4A60
:1024A0001432904217D08A4A2832904213D0884A78
:1024B0003C3290420FD0864A503290420BD0844A30
:1024C0006432904207D0824A7832904203D0804AE8
:1024D0008C32974204D1206E026822F4807202602E
:1024E00075492068884228D0A84226D0B04224D01E
:1024F000404522D0484520D050451ED058451CD0DC
:1025000071491831884218D07049884215D06F49F6
:102510001831884211D06D49303188420DD06B4955
:102520004831884209D069496031884205D06749FD
:102530007831884201D065499031016821F001016C
:1025400001600EE001F0E6F90099401A052808D96B
:10255000202262650321002084F8351084F83400BD
:1025600017E73868C007EDD1534A0121206890422F
:102570002ED0A8422CD0B0422AD0404528D0484581
:1025800026D0504524D0584522D04F4B183398427E
:102590001ED04E4B98421BD04C4B1833984217D04C
:1025A0004A4B3033984213D0484B483398420FD0AF
:1025B000464B603398420BD0444B7833984207D057
:1025C000424B9033984203D0404BA833984208D1F5
:1025D00094F85C703F23A06D07F01F07BB40836039
:1025E00007E094F85C30A06D03F01F0301FA03F3D9
:1025F0004360206890424DD0A8424BD0B04249D0B1
:10260000404547D0484545D0504543D0584541D036
:102610002D4A183290423DD02C4A90423AD02B4A53
:102620001832904236D0294A3032904232D0274A6E
:10263000483290422ED0254A603290422AD0234A16
:102640007832904226D0214A9032904222D01F4ABE
:10265000A83290421ED01E4A90421BD01C4A14320F
:10266000904217D01A4A2832904213D0184A3C326E
:1026700090420FD0164A503290420BD0144A643226
:10268000904207D0124A7832904203D0104A8C32DE
:1026900090420BD1D4E919024260E06E30B1026879
:1026A00022F480720260D4E91C024260002084F8A7
:1026B000351084F834006DE61000024058000240E6
:1026C0007000024088000240A00002401004024056
:1026D000085402582DE9F05F28B190F8351002290E
:1026E00004D0802141650120BDE8F09F904C904BC3
:1026F0000168183C18338E4ADFF83C92A1428D4C99
:10270000DFF838E28E4FDFF83CB2DFF83CA28F4DA5
:102710008F4E31D091422FD099422DD0A1422BD053
:10272000494529D0714527D0B94225D0DFF810C2DC
:102730000CF1180C61451FD0DFF808C2ACF1600C39
:10274000614519D0DFF8FCC1ACF1480C614513D0EC
:10275000DFF8F0C1ACF1300C61450DD0DFF8E4C119
:10276000ACF1180C614507D0594505D0514503D04F
:10277000A94201D0B1422CD1DFF8B4C14FF0040816
:1027800080F83580ACF1180C61451DD091421BD00A
:10279000994219D0A14217D0494515D0714513D09F
:1027A000B94211D06648183081420DD06548603872
:1027B000814209D063484838814205D061483038A9
:1027C000814201D05F481838086820F00100086095
:1027D000ABE0D1F800C02CF00E08DFF854C1C1F80E
:1027E0000080ACF1180C0168614527D0914225D0DA
:1027F000994223D0A14221D049451FD071451DD017
:10280000B9421BD0DFF838C10CF1180C614515D066
:10281000DFF830C1ACF1600C61450FD0DFF824C1A6
:10282000ACF1480C614509D0DFF818C1ACF1300CAF
:10283000614503D0DFF80CC1ACF1180CD1F800C031
:102840002CF0010CC1F800C0DFF8E4804FF0010C5F
:102850000168A8F11808414546D0914244D09942F8
:1028600042D0A14240D049453ED071453CD0B9420A
:102870003AD0334A1832914236D0324A603A9142C5
:1028800032D0304A483A91422ED02E4A303A9142C4
:102890002AD02C4A183A914226D0594524D0514585
:1028A00022D0A94220D0B1421ED02A4A91421BD048
:1028B000284A1432914217D0264A2832914213D026
:1028C000244A3C3291420FD0224A503291420BD0DE
:1028D000204A6432914207D01E4A7832914203D096
:1028E0001C4A8C32914218D1016E0A6822F480721F
:1028F0000A6090F85C20816D02F01F020CFA02F26F
:102900004A60D0E919124A60C16E31B10A6822F4F6
:1029100080720A60D0E91C124A600022016D80F8C2
:1029200035C080F8342001B188470020DCE6000083
:102930002800024058000240700002408800024017
:10294000A00002407004024088040240A00402403B
:10295000B804024008540258406D70472DE9FC5FEE
:102960000446F74E0020DFF8D88300904FF416524B
:10297000F44808F11808A56DDFF8C493DFF8C0A388
:10298000016809F1300920680AF1480AB1FBF2F147
:10299000B04201912F68D5F800C0DFF8ACB335D054
:1029A0004146884232D0484530D050452ED0584517
:1029B0002CD0E5491831884228D0E349303188428B
:1029C00024D0E1494831884220D0E04988421DD0D6
:1029D000DE491831884219D0DC493031884215D09F
:1029E000DA494831884211D0DFF860E30EF1600E19
:1029F00070450BD0D54A7832904207D0D34B9033F4
:102A0000984203D0D149A83188427DD194F85C2006
:102A1000082102F01F0201FA02F23A424AD0B04203
:102A200032D0404530D048452ED050452CD0584566
:102A30002AD0C54A1832904226D0C34A303290423A
:102A400022D0C14A483290421ED0C04A90421BD088
:102A5000BE4A1832904217D0BC4A3032904213D04E
:102A6000BA4A483290420FD0B84A603290420BD0F6
:102A7000B64A7832904207D0B44A9032904203D09E
:102A8000B24AA832904203D1026802F0040202E086
:102A9000026802F008026AB1026822F004020260D1
:102AA00094F85C0000F01F008140A960606D40F068
:102AB0000100606594F85C00012100F01F00814076
:102AC000394240D02068B04234D0404532D04845E9
:102AD00030D050452ED058452CD09B4A18329042C9
:102AE00028D0994A3032904224D0974A48329042B6
:102AF00020D0964A90421DD0944A1832904219D064
:102B0000924A3032904200E0AFE113D08F4A48320F
:102B100090420FD08D4A603290420BD08B4A78326F
:102B2000904207D0894A9032904203D0874AA83217
:102B300090427DD1406910F0800F04D0A960606D93
:102B400040F00200606594F85C00042100F01F0072
:102B5000814039423ED02068B04232D0404530D02A
:102B600048452ED050452CD058452AD0764A1832A8
:102B7000904226D0744A3032904222D0724A483273
:102B800090421ED0714A90421BD0704A1832904237
:102B900017D06E4A3032904213D06C4A483290427D
:102BA0000FD06A4A603290420BD0684A7832904225
:102BB00007D0664A9032904203D0644AA8329042CD
:102BC0004ED1006810F0020F04D0A960606D40F093
:102BD0000400606594F85C00102100F01F00814043
:102BE000394258D02068B04234D0404532D04845B0
:102BF00030D050452ED058452CD0534A18329042F0
:102C000028D0514A3032904224D04F4A4832904224
:102C100020D04E4A90421DD04C4A1832904219D0D2
:102C20004A4A3032904215D0484A4832904200E039
:102C300014E00FD0454A603290420BD0434A7832BC
:102C4000904207D0414A9032904203D03F4AA83286
:102C5000904207D1006800F0080006E0006872E7C3
:102C60000068B7E7006800F00400A0B1A960206820
:102C70000168490304D50068000308D5A16C07E08A
:102C80000168C90503D4016821F008010160216CC5
:102C900009B12046884794F85C00202100F01F000D
:102CA0008140394279D02068B04232D0404530D09E
:102CB00048452ED050452CD058452AD0224A1832AB
:102CC000904226D0204A3032904222D01E4A4832CA
:102CD00090421ED01D4A90421BD01C4A183290428E
:102CE00017D01A4A3032904213D0184A48329042D4
:102CF0000FD0164A603290420BD0144A783290427C
:102D000007D0124A9032904203D0104AA832904223
:102D100003D1006800F0100002E0006800F002003B
:102D2000B0B3A96094F835000428206801680FD07A
:102D300049037ED5006800032BD4616C2AE00000B3
:102D400010000240240000247000024010040240E1
:102D500021F0160101602068416921F08001416184
:102D6000206C08B9A06C20B12068016821F008012E
:102D7000016094F85C303F21012003F01F03002222
:102D80009940A96084F8350084F83420216D65E00D
:102D900003E0E16B09B120468847606D00287DD0D3
:102DA000606DC00759D02068042184F83510B04206
:102DB0002BD0404529D0484527D0504525D05845EF
:102DC00023D09D49884220D09B49183188421CD08D
:102DD00099493031884218D09849884215D097498E
:102DE0001831884211D09549303188420DD093492D
:102DF0004831884209D091496031884205D08F49D5
:102E00007831884201D08D499031016821F001016B
:102E1000016020680099019A491C0091914202D8F2
:102E20000168C907F6D10068C00710D003200FE081
:102E3000FFE70168C905ACD403680121002223F033
:102E40001003036084F8351084F83420A1E70120D2
:102E500084F83500002084F83400E16C00291DD08E
:102E600002B02046BDE8F05F0847754988421DD092
:102E700073491431884219D071492831884215D0DC
:102E80006F493C31884211D06D49503188420DD094
:102E90006B496431884209D0694900E084E07831A7
:102EA000884203D066498C3188427DD194F85C8099
:102EB0000427016808F01F0807FA08F717EA0C0F43
:102EC000009746D04F0744D500980F04686003D59B
:102ED000C8033CD4A16CC1E7880638D42068B0424E
:102EE0002DD055496039884229D0484527D05045D2
:102EF00025D0584523D05049884220D04E4918311A
:102F000088421CD04C493031884218D04B49884205
:102F100015D04A491831884211D048493031884289
:102F20000DD046494831884209D0704507D09042BB
:102F300005D0984203D04149A831884203D10168A5
:102F400021F0080102E0016821F004010160216C18
:102F500084E7022707FA08F717EA0C0F00974ED00C
:102F60008F074CD500980F04686003D5C80344D47C
:102F7000616C73E7880640D42068B0422FD02E4998
:102F8000603988422BD0484529D0504527D0584534
:102F900025D02949884222D02749183188421ED09D
:102FA00025493031884200E044E018D02349884266
:102FB00015D022491831884211D020493031884239
:102FC0000DD01E494831884209D0704507D0904243
:102FD00005D0984203D01949A831884203D101682D
:102FE00021F0140102E0016821F00A0101600121D1
:102FF00084F83510002084F83400E16B2EE70822B5
:1030000002FA08F212EA0C0F14D0090712D501686F
:1030100021F00E01016094F85C100120002201F003
:103020001F0100FA01F16960606584F8350084F8D9
:10303000342012E7BDE8FC9F8800024010040240E3
:10304000085402582DE9F05F044600F063FC002CA0
:1030500007467DD0E34E022120684FF00308DFF8D9
:1030600088934FF00005DFF884A3B042DFF880B307
:1030700034D0DC4A1832904230D048452ED05045EA
:103080002CD058452AD0DA4A1832904226D0D84A55
:103090003032904222D0D64A483290421ED0D54A91
:1030A00090421BD0D34A1832904217D0D14A3032C6
:1030B000904213D0CF4A483290420FD0CD4A60326E
:1030C00090420BD0CB4A7832904207D0C94A903216
:1030D000904203D0C74AA83290427DD184F835107F
:1030E000B04284F834502ED0BE49183188422AD0DC
:1030F000484528D0504526D0584524D0BC491831E1
:10310000884220D0BA49303188421CD0B849483171
:10311000884218D0B749884215D0B649183188423C
:1031200011D0B449303188420DD0B249483188427B
:1031300009D0B0496031884205D0AE497831884223
:1031400001D0AC499031016821F00101016008E033
:1031500027E100BF00F0DEFBC01B052801D92021BC
:103160001CE120680068C007F4D104F10800216860
:10317000D4E9053C8E4685C809681043D4E9072880
:103180001F43636A38439C4F40EA0C0010433940A8
:1031900040EA0800042B40EA010003D1D4E90B12F5
:1031A00011430843954909686FF30F01B1F1005FBE
:1031B0000FD36168A1F12902052A08D9163A032A1A
:1031C00005D9083A012A02D94F39032901D840F418
:1031D0008010CEF8000000E023E02068676A4069B4
:1031E000042F20F0070047EA00070DD1D4E90A01B7
:1031F000074349B12046FEF737FF28B140206065FC
:10320000012184F83510CCE0206847612046FEF7A4
:1032100049FE94F85C203F2102F01F02914081603A
:1032200054E0774A90421BD0754B1433984217D024
:10323000734B2833984213D0714B3C3398420FD0D4
:103240006F4B503398420BD06D4B6433984207D08C
:103250006B4B7833984203D0694B8C3398427DD1C5
:1032600084F8351084F83450664B0168A26801EA8E
:10327000030E402A73D0802A72D00022D4E903784A
:10328000D4E9053142EAD70242EAD8085C4AD4E9D7
:10329000077C48EAD30848EAD10141EAD701524203
:1032A00041EA1C11142341EA0E0101602068104418
:1032B000B0FBF3F08000E0652046FEF7F3FD94F8E4
:1032C0005C20012102F01F02914041602068B04261
:1032D00057D044491831884253D0484551D05045C1
:1032E0004FD058454DD042491831884249D04049C5
:1032F0003031884245D03E494831884241D03D492D
:1033000088423ED03B49183188423AD03949303161
:10331000884236D037494831884232D03549603109
:1033200088422ED03349783188422AD031499031B1
:10333000884226D02F49A831884222D0304988427D
:103340001FD02F49143188421BD02D492831884283
:1033500017D02B493C31884213D002E01DE017E022
:1033600018E02749503188420BD025496431884202
:1033700007D023497831884203D021498C318842D3
:1033800029D12046FEF7E8FDA06880280CD00CE08B
:10339000102273E74FF4804270E74021616584F8A2
:1033A00035800120BDE8F09F6560216E20790860BE
:1033B000D4E9190141606068401E072808D82046FA
:1033C000FEF718FEE06E0560D4E91C01416002E0E2
:1033D000E566256765670120656584F8350000208E
:1033E000E0E70000100002404000024058000240A8
:1033F00070000240100402403F8010FE0010005C8C
:10340000085402580F00FEFF2DE9F84F04008C46C7
:103410004FF00000009014D094F83400012812D02E
:1034200094F835500120002184F83400012D0CD08F
:10343000C00260650120009084F834100098BDE857
:10344000F88F0120FBE70220F9E78C4D0226206867
:1034500084F83560A8428A4D61658A4E8A4FDFF84C
:103460002C82DFF82C92DFF82CA2DFF82CB226D0C9
:10347000A84224D0B04222D0B84220D040451ED02D
:1034800048451CD050451AD0584518D08349884229
:1034900015D082491831884211D080493031884294
:1034A0000DD07E494831884209D07C49603188423C
:1034B00005D07A497831884201D078499031016845
:1034C00021F00101016061462046FEF7F7FD6B49DE
:1034D000206888422CD0A8422AD0B04228D0B842D6
:1034E00026D0404524D0484522D0504520D05845CC
:1034F0001ED06A4A90421BD0684A1832904217D0B8
:10350000664A3032904213D0644A483290420FD01B
:10351000624A603290420BD0604A7832904207D0C3
:103520005E4A9032904203D05C4AA83290420CD15D
:10353000026822F01E0242F016020260206C88B17E
:103540002068026842F008020BE0026822F00E02D6
:1035500042F00A020260206C20B12068026842F04A
:1035600004020260206888424BD0A84249D0B04291
:1035700047D0B84245D0404543D0484541D050455A
:103580003FD058453DD0454A90423AD0434A183240
:10359000904236D0414A3032904232D03F4A48328F
:1035A00090422ED03D4A603290422AD03B4A783237
:1035B000904226D0394A9032904222D0374AA832DF
:1035C00090421ED0364A90421BD0354A1432904267
:1035D00017D0334A2832904213D0314A3C329042BD
:1035E0000FD02F4A503290420BD02D4A6432904275
:1035F00007D02B4A7832904203D0294A8C3290422D
:103600000DD1206E0268D20303D5026842F48072A5
:103610000260E06E18B1026842F4807202602068B5
:10362000884226D0A84224D0B04222D0B84220D02E
:1036300040451ED048451CD050451AD0584518D09A
:103640001649884215D015491831884211D01349BE
:10365000303188420DD011494831884209D00F4994
:103660006031884205D00D497831884201D00B493C
:103670009031016841F001010160DFE61000024075
:103680002800024040000240580002407000024002
:1036900088000240A0000240B8000240100402402E
:1036A0000854025870B5044600F034F90546601C11
:1036B00002D004480078044400F02CF9401BA042DA
:1036C000FAD370BD180000242DE9F84F03247D4D76
:1036D00000234FF001094FF0B04B4FF00F0AE9E023
:1036E00009FA03F73A4076D00E7906F00306012E68
:1036F00001D0022E18D1D0F808C04FEA430ECE6890
:1037000004FA0EF82CEA080C06FA0EF646EA0C0645
:103710008660D0F804C00E792CEA070CC6F30016B8
:103720009E4046EA0C0646600E79F643B6070BD07B
:10373000C6684FEA43088F6804FA08FC26EA0C06BC
:1037400007FA08F73743C7600E7906F00306022E22
:1037500012D1DE080F694FEA437C00EB8606B646BD
:10376000366A4FEADC6C0AFA0CF807FA0CF726EA1C
:1037700008063743CEF820700F7906684FEA4308F1
:1037800007F0030704FA08FC07FA08F726EA0C0614
:10379000374307604E6816F4403F1CD04A4E3768E6
:1037A00047F00207376036689F0706F0020600966A
:1037B00023F0030606F1B046B6463F0FD6F808647C
:1037C000DFF808810AFA07FC404526EA0C0603D117
:1037D0004FF0000C41E06CE0DFF8F4C0604502D12E
:1037E0004FF0010C39E0DFF8ECC0604502D14FF03A
:1037F000020C32E0DFF8E0C0604502D14FF0030C6C
:103800002BE0DFF8D8C0604502D14FF0040C24E073
:10381000DFF8CCC0604502D14FF0050C1DE0DFF8A9
:10382000C4C0604502D14FF0060C16E0DFF8B8C006
:10383000604502D14FF0070C0FE0DFF8B0C06045E3
:1038400002D14FF0080C08E0DFF8A4C0604502D1B7
:103850004FF0090C01E04FF00A0C0CFA07FC4CEA9F
:10386000060CCEF808C44F68DBF80060FF0226EAB9
:10387000020600D516435F46CBF80060D1F804C0BD
:10388000DBF804605FEA8C2C26EA020600D51643BA
:103890007E606E684F6826EA0206BF0300D51643B5
:1038A0006E602E684F6826EA0206FF0300D51643B5
:1038B0002E605B1C0A6832FA03F67FF411AFBDE894
:1038C000F88F000080000058F444025800000258AD
:1038D0000004025800080258000C02580010025858
:1038E0000014025800180258001C02580020025808
:1038F000002402580069084000D0012070470AB136
:10390000816170470904FBE701480068000C7047BB
:103910000010005C01488068704700001800002417
:1039200030B590F84120202A24D190F84020012A77
:1039300020D0012380F84030242280F84120202329
:1039400000240268156825F00105156002681568F5
:1039500025F480551560026815680D4315600168EF
:103960000A6842F001020A6080F8413080F8404065
:10397000002030BD022030BD30B590F84120202A13
:1039800022D190F84020012A1ED0012380F8403037
:10399000242280F84120202400250268136823F0A7
:1039A000010313600268136823F4706343EA012182
:1039B000116001680A6842F001020A6080F8414023
:1039C00080F84050002030BD022030BD0268436BBB
:1039D00091691268002B00D01847704770B5040039
:1039E00004D094F84100002510B106E0012070BD1C
:1039F000204684F8405000F0AFF9242084F84100BC
:103A00002068016821F001010160D4E9001020F074
:103A1000706008612068816821F400418160E0687D
:103A200021680128A06830D040F404408860E06834
:103A30000228206841682BD021F400614160206891
:103A40002021154A4368134343602068C26822F46A
:103A50000042C26054F8106B0DCC104340EA0320C2
:103A6000F06054F81C3CD4E900021043186054F88C
:103A70001C0D026842F001020260656484F8411086
:103A8000256384F84250002070BD40F40040CDE72B
:103A900041F40061D2E70000008000022DE9FF4FF1
:103AA00083B0044690F841009A469346DDE91087BA
:103AB000DDF84890202874D15FEA080014D09FB147
:103AC00094F8400001286CD0012084F84000FFF7F2
:103AD00021FF0122064619230090D103204603F05E
:103AE000B3FC002871D103E04FF4007060646CE017
:103AF0000025C4F82480222184F84110402084F855
:103B0000420065646785534665635A4604992046BA
:103B1000CDE9009603F01CFC10B184F8405054E04D
:103B2000618DFF2734484FF08078FF294FF0007AED
:103B300004D927853A464346009005E0618D5346F7
:103B40002185009094F828202046049903F064FC15
:103B500000224B4604212046009603F075FCA0BBD2
:103B60002068616A406A0870606A401C6062208D4B
:103B7000401E81B22185608D401E6085608DD8B168
:103B8000D1B900224B4680212046009603F05CFC10
:103B9000D8B9608DFF2805D927853A464346009558
:103BA00006E026E0608D53462085009594F8282095
:103BB0002046049903F030FC608D0028C8D13246BD
:103BC0004946204603F07EFC18B1012007B0BDE84D
:103BD000F08F21682020094AC86121684B68134092
:103BE0004B6084F8410084F84250002084F8405033
:103BF000ECE70220EAE700000024008000E800FE75
:103C00002DE9FF4F83B0044690F841009A46934651
:103C1000DDE91087DDF84890202871D15FEA0800BF
:103C200014D09FB194F84000012869D0012084F895
:103C30004000FFF76FFE0122064619230090D103D2
:103C4000204603F001FC00286ED103E04FF4007021
:103C5000606469E00025C4F82480212184F84110C3
:103C6000402084F8420065646785534665635A4680
:103C700004992046CDE9009603F09CFB10B184F82E
:103C8000405051E0608DFF274FF08078FF284FF0C3
:103C9000007A04D927853A464346009505E0608DB1
:103CA00053462085009594F828202046049903F077
:103CB000B3FB32464946204603F030FCA0BB606AA5
:103CC000216800788862606A401C6062608D401ED6
:103CD0006085208D401E80B22085618DD9B1D0B91C
:103CE00000224B4680212046009603F0ADFBD8B958
:103CF000608DFF2805D927853A464346009506E0A2
:103D000026E0608D53462085009594F828202046B3
:103D1000049903F081FB608D0028CAD132464946E0
:103D2000204603F0CFFB18B1012007B0BDE8F08FAB
:103D300020682021074AC16120684368134043601E
:103D400084F8411084F84250002084F84050ECE799
:103D50000220EAE700E800FE10B5B6B004461421E0
:103D600030A8FCF7A9FEC0216846FCF7A5FE1D4956
:103D70002068884233D10020269010210446CDE9E6
:103D80000010684600F0D0FA08B1FEF7E3FA1648D2
:103D9000016841F002010160006830AB122100F0BF
:103DA000020035904FF4C070062283E813000F48DC
:103DB00030A9CDE93342FFF787FC0B481430016886
:103DC00041F08001016000680022052100F08000C0
:103DD00035905F2000F0F6F85F2000F0E5F836B08F
:103DE00010BD0000001C0058E044025800040258B6
:103DF00002488168027811448160704718000024ED
:103E0000032010B500F0FEF801F006F90F4A104942
:103E100014681368C4F3032203F00F038A5CC95CBF
:103E200002F01F0201F01F01D0400A4A20FA01F1FE
:103E30001160094908600F2000F010F808B1012056
:103E400010BD00F09FF8002010BD0000184402587B
:103E5000442E0108280000242400002410B5102856
:103E600004468AB02CD200220146362000F0AAF87F
:103E7000362000F099F8174804601748016841F0AF
:103E800010010160006809A900F010000890684660
:103E900001F04EF80598B0B101F09AF840000F49D2
:103EA00000220F4CB0FBF1F10E4840F2E733046002
:103EB000C0E90332491EC0E9011202F073F828B1CB
:103EC00001200AB010BD01F083F8E8E7054802F0D0
:103ED0009BF8F6E71C000024E844025840420F001B
:103EE00000100040BC0D0024154BF0B5083B427893
:103EF00013491A600B680A1F23F001030B60436823
:103F00001360057BC67A827A437B2D07847B45EA62
:103F10000665C77B90F809C0067A90F800E045EA8C
:103F2000C24040EA834040EA444040EA074040EA59
:103F30000C2040EA460040EA0E000860F0BD000098
:103F4000A0ED00E0BFF35F8F044800210368034A3F
:103F500023F48033036070321160704724ED00E079
:103F6000074A40F00100064970321060086840F4CA
:103F700080300860BFF34F8FBFF36F8F7047000032
:103F800024ED00E0074882B0016841F002010160C1
:103F9000006800220F2100F002000090901E02B085
:103FA00000F010B8F4440258002809DB410900F081
:103FB0001F028900012001F1E0219040C1F80001B9
:103FC000704700000E4BF0B41B680D46C3F302238C
:103FD000C3F10706042E00D90426191D072901D2B2
:103FE000002300E0DB1E012404FA06F19C40491E78
:103FF0002940641E994014402143F0BC09F033BFAE
:104000000CED00E0064900F0070210B54FF6FF0482
:104010000868044B204040EA02201843086010BDA5
:104020000CED00E00000FA05134970B50A68D243B0
:10403000520705D5096801F00701814213D118E044
:104040000A6822F0070202430A60FFF763FC0A4D88
:104050004FF47A760446083D07E000BFFFF75AFCAC
:10406000001BB04201D9012070BD2868C043800404
:10407000F4D4002070BD00000C48025810B500F0C8
:1040800085FF05490968054AC1F30211515C01F039
:104090001F01C84010BD000020440258442E0108F2
:1040A000494930B5484C0B1D0A68143409681D682D
:1040B000246802F00303C5F30012C1F30531C4F311
:1040C000CC04002914FB02F200EE102AF8EE400A9C
:1040D00075D03F4A9FED3D1AB7EE000A6BB1DFED98
:1040E0003D1A012B01D0022B64D002EE101A116888
:1040F000F8EE422A81EEA22A21E0334C283C2368C4
:104100009B0612D5344B246801EE901A1168C4F353
:10411000C104F8EE612AE34001EE903AC1F30801D0
:10412000F8EE611A81EEA22A0BE001EE901ADFEDA3
:104130002B2A00BFF8EE611A116882EEA12AC1F3A2
:10414000080101EE901A1168F8EE611A40EE811A2A
:1041500071EE800A62EE200AC1F3462101EE101AC8
:10416000B8EE411A31EE001AC0EE811ABCEEE11A27
:1041700080ED001A1168C1F3064101EE101AB8EE85
:10418000411A31EE001AC0EE811ABCEEE11A80ED40
:10419000011A1168C1F3066101EE101AB8EE411A56
:1041A00031EE000A80EE801ABCEEC10A80ED020AF0
:1041B00030BD04E001EE901ADFED092ABAE70021D4
:1041C000016041608160F3E7284402580000003933
:1041D000384402580024744A0090D0030024744CE0
:1041E00020BCBE4B494930B5484C0B1D0A681C34F5
:1041F00009681D68246802F00303C5F30022C1F3B7
:104200000551C4F3CC04002914FB02F200EE102A7D
:10421000F8EE400A75D03F4A9FED3D1AB7EE000A0E
:104220006BB1DFED3D1A012B01D0022B64D002EE01
:10423000101A1168F8EE422A81EEA22A21E0334CCE
:10424000283C23689B0612D5344B246801EE901A53
:104250001168C4F3C104F8EE612AE34001EE903A1C
:10426000C1F30801F8EE611A81EEA22A0BE001EE1B
:10427000901ADFED2B2A00BFF8EE611A116882EE6A
:10428000A12AC1F3080101EE901A1168F8EE611A33
:1042900040EE811A71EE800A62EE200AC1F34621D7
:1042A00001EE101AB8EE411A31EE001AC0EE811A72
:1042B000BCEEE11A80ED001A1168C1F3064101EE6F
:1042C000101AB8EE411A31EE001AC0EE811ABCEE97
:1042D000E11A80ED011A1168C1F3066101EE101AAE
:1042E000B8EE411A31EE000A80EE801ABCEEC10A27
:1042F00080ED020A30BD04E001EE901ADFED092ADC
:10430000BAE70021016041608160F3E72844025868
:1043100000000039404402580024744A0090D00341
:104320000024744C20BCBE4B2DE9FE4F0546DFF83F
:10433000E48350F8081B0024F64FC943019005F1AF
:104340002800264608F12408009008011DD4A86E14
:1043500050B1B0F5801F0CD0B0F5001F0ED0B0F5F5
:10436000401F1ED001240FE0386840F40030386050
:1043700017E00198022104F03DFC03E000980221BF
:1043800004F0C8FC04000CD026462888C043C005B1
:1043900023D4A86D05281ED2DFE800F00C11161BEF
:1043A0001B00AA6ED8F8001021F440111143C8F880
:1043B0000010EAE7386840F40030386009E00198FE
:1043C000002104F017FC03E00098002104F0A2FC97
:1043D000044674B100E0012426462888C0438005C5
:1043E00028D4E86D80281ED00CDC90B140280ED176
:1043F00014E0AA6DD8F8001021F007011143C8F8A5
:104400000010EAE7C02813D0B0F5807F10D0012457
:104410000FE0386840F40030386009E0019800216E
:1044200004F0E8FB03E00098002104F073FC04466C
:104430009CB126462888DFF8DC92C04309F12C099C
:1044400040052CD4D5F8A800B0F5800F20D00DDCA5
:10445000A0B1B0F5001F0FD115E0EA6DD8F800103B
:1044600021F4E0711143C8F80010E3E7B0F5C00F84
:1044700013D0B0F5000F10D001240FE0386840F4DD
:104480000030386009E00198002104F0B3FB03E03C
:104490000098002104F03EFC04467CB126462888A2
:1044A000C04300052DD4D5F8AC00B0F1007F21D079
:1044B0000EDCA8B1B0F1807F10D116E0D5F8A820AD
:1044C000D9F8001021F460011143C9F80010E6E7A3
:1044D000B0F1407F13D0B0F1806F10D001240FE015
:1044E000386840F40030386009E00198002104F099
:1044F00081FB03E00098002104F00CFC044674B139
:1045000026462868C04380011FD4E86CD8B1102823
:104510000FD0202812D0302815D0012414E0D5F86F
:10452000AC20D9F8001021F0E0611143C9F8001067
:10453000E7E7386840F40030386004E00198022171
:1045400004F058FB044674B126462888C043C004D2
:104550002BD4286EB0F5005F20D00DDCA0B1B0F5F3
:10456000805F0FD115E06B48EA6C2030016821F0C4
:10457000300111430160E8E7B0F5405F13D0B0F5BA
:10458000804F10D001240FE0386840F400303860CC
:1045900009E00198002104F02DFB03E000980021C0
:1045A00004F0B8FB04468CB126462888C04380043A
:1045B00029D4686EB0F5403F23D010DC08B3B0F5C5
:1045C000803F14D0B0F5003F0FD115E02A6ED8F827
:1045D000001021F4E0411143C8F80010E5E7B0F500
:1045E000802F0ED0B0F5A02F0BD001240AE0019847
:1045F000012104F0FFFA03E00098012104F08AFB96
:10460000044694B126462888C04340042AD4D5F8ED
:10461000B000B0F1405F23D010DC08B3B0F1805F90
:1046200014D0B0F1005F0FD115E06A6ED8F8001019
:1046300021F4E0211143C8F80010E4E7B0F1804F05
:104640000ED0B0F1A04F0BD001240AE00198012157
:1046500004F0D0FA03E00098012104F05BFB04466B
:1046600074B126462888C04300041FD4286FD8B1EF
:10467000B0F1805F0ED0B0F1005F10D0012414E0E3
:10468000D5F8B020D9F8001021F0E0411143C9F865
:104690000010E7E7386840F40030386004E0019823
:1046A000012104F0A7FA044674B126462868C043E5
:1046B000C0011ED4A86CD0B101280ED0022811D0A0
:1046C000032814D0012413E02A6FD8F8001021F039
:1046D00040511143C8F80010E8E7386840F4003052
:1046E000386004E00198022104F084FA0446ACB179
:1046F00026462868DFF81CB0C043ABF11C0B400213
:1047000052D40548016841F480710160FFF702F955
:10471000824611E02C44025800480258FA48AA6C1C
:10472000016821F0030111430160E2E7FFF7F2F8AD
:10473000A0EB0A00642835D8F4480068C005F5D518
:104740008CBBDFF8C4A3B5F8B4100AF1240ADAF878
:10475000000001F4407100F44070884211D0DAF892
:104760000010DAF8002021F4407142F48032CAF8D7
:104770000020DAF8002022F48032CAF80020CAF8BB
:104780000010D5F8B400B0F5807F1AD1FFF7C2F859
:10479000029012E0FFF7BEF80299411A41F2883008
:1047A00081420AD9032426462878DFF85CA3C04357
:1047B0000AF1080AC00721D03CE0DAF800008007BF
:1047C000E8D5D5F8B410C1F30120032858460DD020
:1047D000016821F47C510160B5F8B420DAF80010CA
:1047E000C2F30B021143CAF80010DDE7C84A0368A0
:1047F00002EA111223F47C511143ECE7E86F182808
:1048000016D005DCA0B1082808D0102804D10AE091
:1048100020280DD028280BD001240AE0019801217E
:1048200004F0E8F903E00098012104F073FA04466B
:1048300064B126462878C04380071ED4A86F062896
:1048400019D2DFE800F0160C11161616EA6FDAF826
:10485000001021F038011143CAF80010EAE701986E
:10486000012104F0C7F903E00098012104F052FA95
:1048700004467CB100E0012426462878C043400766
:104880001FD4D5F89400062819D2DFE800F0160CE2
:1048900011161616AA6FDAF8001021F0070111435D
:1048A000CAF80010E9E70198012104F0A3F903E038
:1048B0000098012104F02EFA0446A4B100E001247E
:1048C00026462878C04380062BD4D5F89000B0F156
:1048D000405F24D011DC10B3B0F1805F15D0B0F18F
:1048E000005F10D116E0D5F89420D9F8001021F01F
:1048F00007011143C9F80010E3E7B0F1804F0ED073
:10490000B0F1A04F0BD001240AE00198002104F07F
:1049100071F903E00098022104F0FCF9044694B117
:1049200026462878C04340062BD4D5F89C00B0F525
:10493000406F24D011DC10B3B0F5806F15D0B0F506
:10494000006F10D116E0D5F89020DAF8001021F0B1
:10495000E0411143CAF80010E3E7B0F5805F0ED0E4
:10496000B0F5A05F0BD001240AE00198002104F00B
:1049700041F903E00098022104F0CCF9044694B117
:1049800026462878C04300062BD4D5F8A000B0F501
:10499000C04F24D011DC10B3B0F5005F15D0B0F5D6
:1049A000804F10D116E0D5F89C20D9F8001021F4E2
:1049B000E0511143C9F80010E3E7B0F5004F0ED005
:1049C000B0F5204F0BD001240AE00198002104F03B
:1049D00011F903E00098022104F09CF9044654B157
:1049E00026462878C04300071ED4D5F88400B0F5C9
:1049F000805F0AD00FE0D5F8A020D9F8001021F48C
:104A000060411143C9F80010EBE70098022104F05F
:104A100081F900B10126D5F88420DAF8001021F4DC
:104A200040511143CAF800102878C043C00613D47F
:104A3000D5F89800B0F5807F05D10098022104F0E8
:104A400069F900B10126D5F89820D9F8001021F4B1
:104A500040711143C9F800102868C043000316D400
:104A6000D5F8A40038B1B0F5803F09D0B0F5003FCB
:104A70000BD001240AE00198002104F0BBF803E008
:104A80000098022104F046F904468CB126462868B5
:104A9000C043400322D4D5F88800B0F5801F11D060
:104AA000B0F5001F13D0B0F5401F15D0012414E05D
:104AB000D5F8A420D9F8001021F440311143C9F8E9
:104AC0000010E4E7386840F40030386004E00098F3
:104AD000012104F01FF904465CB126462868C04352
:104AE000C00323D4286DA8B1B0F5803F17D00124AE
:104AF0001BE0D5F88820DAF8001021F440111143AA
:104B0000CAF80010EAE700004C4402580048025876
:104B1000CFFFFF00386840F40030386004E00198AF
:104B2000022104F067F80446E4B126462868C04331
:104B3000800005D40098022104F0ECF800B10126B1
:104B40002868C04380031BD4D5F88000B0B1B0F50D
:104B5000807F0FD0B0F5007F10D0B0F5407F0DD032
:104B600001240CE05A482A6D016821F48031114378
:104B70000160DBE7386840F400303860ECB326466B
:104B80002868C043C00207D46A6FD8F8001021F02B
:104B900000411143C8F800102868C043C00008D481
:104BA000D5F8B820DBF8001021F480411143CBF890
:104BB00000102868C043800207D4EA6ED8F80010BD
:104BC00021F080711143C8F800102868C0434000EC
:104BD0000CD4DBF8001021F40041CBF80010DBF816
:104BE0000010D5F8BC201143CBF800102868C04352
:104BF00008D437486A6D016800E018E021F04051A0
:104C0000114301602868C043000208D4D5F88C2005
:104C1000DAF8001021F440011143CAF80010287995
:104C20000024C04300F0010020430AD00FE0D5F873
:104C30008020DAF8001021F440711143CAF8001006
:104C40009EE70198002103F0D5FF00B106462879C0
:104C5000C04300F00200204305D10198012103F078
:104C6000C9FF00B106462879C04300F00400204384
:104C700005D10198022103F0BDFF00B10646287955
:104C8000C04300F00800204305D10098002104F043
:104C900041F800B106462879C04300F010002043D7
:104CA00005D10098012104F035F800B106462879B5
:104CB000C04300F02000044304D10098022104F016
:104CC00029F800B916B10120BDE8FE8F0020FBE7EE
:104CD0004C4402582DE9F05F04000F467ED0DFF807
:104CE0003882D8F8000000F00F00B8420CD2D8F893
:104CF000001021F00F013943C8F80010D8F8000067
:104D000000F00F00B84269D12078844D40070AD5E1
:104D10002069296801F07001884204D9296821F0CE
:104D200070010143296020787C4E361D00070AD5AA
:104D30006069316801F07001884204D9316821F05E
:104D40007001014331602078C0060AD5A06931683E
:104D500001F4E061884204D9316821F4E061014343
:104D600031602078DFF8B4B180060BF1080B0CD568
:104D7000E1695846DBF8002002F07002914204D944
:104D8000026822F070020A430260207880070AD588
:104D9000E068296801F00F01884204D9296821F0F0
:104DA0000F01014329602078C0073ED05B49A2680B
:104DB0002868183920F47060104328606068022861
:104DC00018D0032819D00968012819D049070029EB
:104DD0004ADADFF848A1AAF1080A00E044E0DAF86C
:104DE000002022F007020243CAF80020FEF792FDDD
:104DF000814612E009688903E9E709688901E6E765
:104E0000C905E4E7FEF786FDA0EB090141F2883011
:104E1000814202D90320BDE8F09F6168DAF8000002
:104E200000F03800B0EBC10FECD1207880070AD534
:104E3000E068296801F00F01884204D2296821F056
:104E40000F0101432960D8F80010404601F00F011E
:104E5000B9420BD9016821F00F01394301600068A4
:104E600000F00F00B84201D00120D4E720784007BD
:104E70000AD52069296801F07001884204D22968A6
:104E800021F0700101432960207800070AD560698C
:104E9000316801F07001884204D2316821F070015C
:104EA000014331602078C0060AD5A069316801F459
:104EB000E061884204D2316821F4E061014331604D
:104EC000207880060CD5E1695846DBF8002002F016
:104ED0007002914204D2026822F070020A4302601A
:104EE00000F09AF80E492A682B68C2F3032203F0F7
:104EF0000F038A5CC95C02F01F0201F01F01D04061
:104F0000084A20FA01F11160074908600748006863
:104F1000BDE8F05FFEF7A2BF00200052184402581F
:104F2000442E010828000024240000241C00002432
:104F300070B5144C3F220260124A24680832131DD7
:104F4000114D04F00704446016681C1D06F47066D9
:104F50008660166806F00F06C660126802F07002DE
:104F600002611A6802F0700242611A6802F4E0629B
:104F70008261226802F07002C261286800F00F00AE
:104F8000086070BD104402580020005230B500F097
:104F900043F80B4A0B490C4B15681468C5F3032200
:104FA00004F00F048A5C095D02F01F0201F01F018A
:104FB000D040064A20FA01F119601060084630BD61
:104FC00018440258442E010828000024240000241C
:104FD00000B5FFF7DBFF05490968054AC1F3021177
:104FE000515C01F01F01C84000BD00001C44025884
:104FF000442E010800B5FFF7C9FF05490968054AB5
:10500000C1F30221515C01F01F01C84000BD000046
:105010001C440258442E0108454970B545480968AA
:10502000434B103B11F0380208D00111082A03D07D
:10503000102A0BD0182A0BD0084670BD19688906B3
:10504000FBD51968C1F3C101C84070BD3A4870BDB5
:105050003749374D18310C1D24350A680968266810
:105060002D6802F0030406F00102C1F30511C5F337
:10507000CC0515FB02F200EE102AB8EE400AE9B3A7
:105080002F4ADFED2E0AB7EE001A6CB1DFED2D1AB4
:10509000012C01D0022C43D002EE101A1068F8EE59
:1050A000422A81EEA22A1EE01C68A40611D51B68C4
:1050B00001EE901A1168C3F3C103F8EE612AD840DB
:1050C00001EE900AC1F30800F8EE611A81EEA22AFF
:1050D0000BE001EE901ADFED1C2A00BFF8EE611A1A
:1050E000106882EEA12AC0F3080001EE900AF8EEE3
:1050F000611A40EE201A31EE810A00E015E022EE3E
:10510000000A1068C0F34620401C00EE900AF8EE3A
:10511000600A80EE201ABCEEC10A10EE100A70BDC3
:1051200001EE901ADFED092AD8E7002070BD0000DB
:10513000104402580090D00340787D0100000039EF
:10514000304402580024744A0024744C20BCBE4BE6
:105150002DE9F05F04007DD0FF4F2078FE4D183719
:10516000DFF8F493103DC00748D0D9F80000396843
:1051700000F03800102815D0182803D101F00300E2
:1051800002280FD06068B0F5803F12D010B1B0F5A2
:10519000A02F18D0286820F480302860286820F4D8
:1051A000802009E02868800328D560680028D2D0D4
:1051B00024E0286840F480302860606888B1FEF7F9
:1051C000A9FB064609E0286840F480202860F0E743
:1051D000FEF7A0FB801B64286FD828688003F7D5F2
:1051E0000CE0FEF797FB064605E000BFFEF792FBDA
:1051F000801B6428F0D828688003F7D4207841F217
:105200000308D54E0C3E800769D5D9F800003968EF
:1052100010F038000ED0182801D188070AD0E068B5
:1052200090B3296821F0190101432960FEF772FB50
:10523000824631E02868400702D5E06800288AD01D
:10524000E168286820F0190008432860FEF762FB37
:10525000824607E0DFE000BFFEF75CFBA0EB0A0040
:105260000228B9D828684007F6D500BFFEF74CFBE6
:1052700040451BD82069402812D0316821F47C3188
:1052800041EA003030602AE018E000BFFEF742FB40
:10529000A0EB0A0002289FD828684007F6D5E5E76A
:1052A000306820F47C3040F40030EBE7207C31683B
:1052B00021F0FE4141EA0060E4E70DE1286820F0BA
:1052C00001002860FEF726FB824605E0FEF722FB80
:1052D000A0EB0A0002288DD828684007F6D4207871
:1052E000C0065DD5D9F80000DFF86CB2396800F06F
:1052F0003800ABF1040B082810D0182803D101F0B6
:10530000030001280AD0E0690028286838D040F05E
:1053100080002860FEF7FEFA824623E02868C00578
:1053200023D5E069802876D11FE0206A202821D08B
:10533000316821F0F84141EA8060306030E000BF20
:1053400094F82010DBF8002022F07C5242EA016140
:10535000CBF8001024E000BFFEF7DCFAA0EB0A0057
:10536000022898D82868C005F6D5FEF7CDFA404542
:10537000E6D8DAE7306820F0F84040F08040DCE71B
:1053800020F080002860FEF7C5FA064605E000BF61
:10539000FEF7C0FA801B02289DD82868C005F7D404
:1053A0002078000729D56C4861696430002980465F
:1053B000016811D041F001010160FEF7ABFA064629
:1053C00005E000BFFEF7A6FA801B0228C9D8D8F86E
:1053D00000008007F6D510E021F001010160FEF722
:1053E00099FA064605E000BFFEF794FA801B0228F2
:1053F00072D8D8F800008007F6D42078800623D52C
:10540000A0690028286810D040F480502860FEF77A
:1054100081FA064605E036E1FEF77CFA801B022899
:105420005AD828688004F7D50EE020F48050286010
:10543000FEF770FA064604E0FEF76CFA801B0228BD
:105440004AD828688004F7D4207840074FD5DFF881
:105450000C81D8F8001041F48071C8F80010FEF7F4
:1054600059FA064605E000BFFEF754FA801B64288F
:1054700032D8D8F80000C005F6D5374EA06860369F
:1054800001280AD008B1052813D0306820F00100A7
:105490003060306820F0040002E0306840F0010025
:1054A0003060A06841F2883A90B1FEF733FA804646
:1054B0000AE0306840F004003060EEE7FEF72AFAB8
:1054C000A0EB0801514507D830688007F6D50EE0FB
:1054D000FEF720FA804607E084E000BFFEF71AFAE4
:1054E000A0EB080151457DD830688007F6D4606A8A
:1054F000B0B3DFF86480D9F8001008F120084FF647
:10550000F87B08F10409C1F3C2010329A8F1040AD8
:1055100069D00228286820F08070286003D0FEF748
:10552000F9F9044684E0FEF7F5F9064605E000BF08
:10553000FEF7F0F9801B022877D828688001F7D49D
:10554000E26A40F2F331386854F8283F884340EA71
:1055500002101843386004E0104402580048025812
:10556000B5E0217B434622894FF4FE0C208A4FF0A0
:10557000FE474902267D521E401EA1F50071C2F36E
:1055800008088AB2761E0CEA004042EA080202438A
:10559000504607EA06610A431A60DAF8002022F052
:1055A0000102CAF80020D9F80020266A22EA0B027C
:1055B00042EAC602C9F80020DAF80010A26921F018
:1055C0000C011143CAF800100168E26921F00201E0
:1055D00011430160016841F480310160016841F4C8
:1055E000003101E021E027E00160016841F4802101
:1055F0000160016841F001010160286840F080709D
:105600002860FEF787F9044605E000BFFEF782F93F
:10561000001B022809D828688001F7D557E000BF91
:10562000FEF778F9001B022802D90320BDE8F09F9D
:1056300028688001F4D44AE039680128D8F80000CD
:1056400021D0A26A01F0030393421CD1E26AC1F3A4
:1056500005118A4217D1216BC0F30802491E8A4204
:1056600011D1616BC0F34622491E91420BD1A16B4F
:10567000C0F30642491E914205D1E16BC0F30660BA
:10568000491E814201D00120D0E7A16C4E46D9F8D5
:105690000000C0F3CC00814219D0DAF80000554672
:1056A00020F00100CAF80000FEF734F94FEA0007C5
:1056B000FEF730F9B842FBD0A26C306820EA0B004C
:1056C00040EAC2003060286840F0010028600020F5
:1056D000ACE700002DE9F047040029D0594A4FF00B
:1056E00000092068584B594D9042C4F8289006D0C4
:1056F000984204D0A84202D0E1680F2918D8E16886
:105700004FF0010AE76B0831C9080AEB57167143DD
:10571000904205D0984203D0A84201D0082907D86A
:10572000904203D0984201D0A84204D1102902D956
:105730000120BDE8F08794F8810020B9204684F864
:10574000809000F085F8022084F8810020680168CC
:1057500021F0010101602068A1698268B1F1806FC8
:1057600002F4F81110D16268B2F5800F01D01AB1BD
:105770000AE0A26B22B107E0A26BB2F1805F03D115
:10578000026842F4805202606068400209D5E06815
:10579000072806D32068236D026822F480721A431A
:1057A00003E02068026822F480720260A66AE06961
:1057B000E26B25683043E3680A4310431843A8604E
:1057C000D4E90D02D4E90581636A25691843D4F848
:1057D00020C00A43266810432843A56DD4E901720E
:1057E000D4E9123140EA080040EA0C00384308438B
:1057F000104318432843F060606868B920688168E6
:1058000021F4C05141F4006181602068816821F475
:10581000C06141F4806181602068016D21F0010167
:1058200001656068400206D52068626DC16821F09C
:1058300000411143C160C4F8849084F881A0002025
:1058400077E700000030014000380040003C004095
:1058500010B5B6B00446142130A8FBF72DF9C021CD
:105860006846FBF729F91949206888422BD1411471
:10587000002019900446CDE900106846FEF754FD5B
:1058800008B1FCF767FD1248016841F4005101605E
:10589000006800F4005035900D481038016841F060
:1058A00010010160006830AB022100F0100035905B
:1058B0004FF4A040052283E81300064830A9CDE943
:1058C0003342FDF701FF36B010BD00000034014047
:1058D000F0440258001002582DE9F84F8946C16B78
:1058E000044600689A4616464909491C1FFA81F881
:1058F00030300090FEF70EF8834694F881000128BE
:1059000038D1B9F1000F6FD0002EFCD094F8800090
:1059100001282FD0A1680025012784F88070042079
:1059200084F88100C4F88450C4F86490E565A4F854
:105930006050256765672C34B1F5C02FA687E687D0
:10594000E58654F82C0D18D0C16821F4C02141F42B
:105950008021C160206841686FF30F0131434160CD
:105960002068016841F0010101606068B0F5800FB6
:1059700008D00CE00220BDE8F88F016821F4006136
:105980000160E7E72068016841F400710160E068A8
:105990000F2824D829E0206841694269D20705D13F
:1059A000B4F86A3043450DD209040BD5006B616E23
:1059B0000860606E001D6066B4F86A00401EA4F8BE
:1059C0006A000CE0FDF7A6FFA0EB0B01514503D3E5
:1059D000BAF1FF3F03D0AAE0BAF1000F40D0B4F80B
:1059E0006A000028D7D194E09FE007283CD88CE0DB
:1059F000216848694969C9070AD000980088616E22
:105A00000880606E801C6066B4F86A00401E15E075
:105A1000B4F86A20424514D2010412D500980088D7
:105A2000616E0880606E801C606600990988018044
:105A3000606E801C6066B4F86A00801EA4F86A007C
:105A400012E0B4F86A10012901D18004D5D4FDF721
:105A500061FFA0EB0B01514503D3BAF1FF3F03D027
:105A600065E0BAF1000F62D0B4F86A000028BFD137
:105A70004FE0206841694269D2070AD090F83000AF
:105A8000616E0870606E401C6066B4F86A00401E6B
:105A900024E0B4F86A30434523D20A0421D590F8B3
:105AA0003000616E0870606E401C6066216891F87D
:105AB00030100170606E401C6066216891F83010F3
:105AC0000170606E401C6066216891F830100170B2
:105AD000606E401C6066B4F86A00001FA4F86A009B
