:020000040800F2
:10000000F84E0024FD030008134800084F42000882
:100010001148000883060008BD53000800000000D6
:100020000000000000000000000000003D03000888
:100030003509000800000000990300085D4A000827
:100040001B0400081B0400081B0400081B04000814
:100050001B0400081B0400081B0400081B04000804
:100060001B0400081B0400081B0400088506000888
:10007000910600089D060008A90600081B04000858
:100080001B0400081B0400081B0400081B040008D4
:100090001B0400081B0400081B0400081B040008C4
:1000A0001B040008294C00081B0400081B0400085E
:1000B0001B0400081B0400081B0400081B040008A4
:1000C0001B0400081B0400081B0400081B04000894
:1000D0001B0400088D53000899530008A55300081D
:1000E0001B0400081B040008000000001B0400089B
:1000F0001B0400081B0400081B0400081B04000864
:100100001B0400081B0400081B0400081B04000853
:10011000014D00080D4D00081B0400081B040008D9
:10012000B5060008C1060008CD0600081B0400083B
:100130001B0400081B0400081B0400081B04000823
:1001400000000000000000000000000000000000AF
:100150001B0400081B0400081B040008B15300081E
:100160001B0400081B0400081B0400081B040008F3
:100170001B0400081B0400081B0400081B040008E3
:100180001B0400081B040008194D0008254D000839
:100190001B0400081B0400081B0400081B040008C3
:1001A0001B0400081B0400081B0400081B040008B3
:1001B0001B0400081B0400081B0400081B040008A3
:1001C0001B0400081B0400081B0400081B04000893
:1001D0001B0400081B0400081B0400081B04000883
:1001E0001B0400081B0400081B0400081B04000873
:1001F0001B0400081B0400081B0400081B04000863
:100200001B0400081B0400081B0400081B04000852
:100210001B0400081B0400081B0400081B04000842
:100220001B0400081B0400081B0400080000000059
:100230001B0400081B040008000000001B04000849
:100240001B0400081B0400081B0400081B04000812
:100250001B0400081B0400081B0400081B04000802
:100260001B0400081B0400081B0400081B040008F2
:100270001B0400081B0400081B0400080000000009
:100280001B0400081B0400081B04000800000000F9
:10029000000000001B04000800F002F800F03EF827
:1002A0000AA090E8000C82448344AAF10107DA45D1
:1002B00001D100F033F8AFF2090EBAE80F0013F0E5
:1002C000010F18BFFB1A43F001031847A460000098
:1002D000C4600000103A24BF78C878C1FAD8520729
:1002E00024BF30C830C144BF04680C6070470000B0
:1002F0000023002400250026103A28BF78C1FBD82F
:10030000520728BF30C148BF0B6070471FB505F0CA
:10031000DFFF00F06BF91FBD10B510BD00F078F9DC
:100320001146FFF7F3FF05F02DFA00F096F903B43C
:10033000FFF7F2FF03BC00F09DF900002C4B196899
:100340000868B0E8F04F80F30988BFF36F8F4FF073
:10035000000080F311887047000000000848006822
:10036000006880F308884FF0000080F3148862B6BC
:1003700061B6BFF34F8FBFF36F8F00DF00BF00BFC9
:1003800008ED00E0DFF80C00016841F47001016045
:10039000704700BF88ED00E0EFF30980BFF36F8F77
:1003A000134B1A681EF0100F08BF20ED108A20E9C9
:1003B000F04F106009B44FF0500080F31188BFF384
:1003C0004F8FBFF36F8F05F0BBFD4FF0000080F340
:1003D000118809BC19680868B0E8F04F1EF0100FCA
:1003E00008BFB0EC108A80F30988BFF36F8F7047A5
:1003F0001C000024EFF30580704700000A48804786
:100400000A4880470A480047FEE7FEE7FEE7FEE7A6
:10041000FEE7FEE7FEE7FEE7FEE7FEE705480649E2
:10042000064A074B704700003D090008314B0008A1
:1004300099020008F8480024F84E0024F84A0024E5
:10044000F84A002453EA020C00F069802DE9F04BD1
:100450004FF00006002B1FBFB3FA83F503FA05F433
:1004600024FA05F65E4012BF1643B2FA82F502FA8C
:1004700005F4C5F120051EBF22FA05FC44EA0C0470
:10048000203556EA044C4FEA144418BF641C4FF060
:1004900000084FF00009904271EB030C39D300299A
:1004A00019BFB1FA81F701FA07F6B0FA80F700FA3E
:1004B00007F6C7F120071EBF20FA07FC46EA0C0624
:1004C0002037B6FBF4FCA7EB0507103F07F01F0B26
:1004D000CBF120060CFA0BFB2CFA06F644BFB34610
:1004E0000026202FA4BF5E464FF0000B5BEA060CEF
:1004F00008BF4FF0010B19EB0B09ABFB027C48EB7B
:100500000608C01B06FB02CC0BFB03CC71EB0C01F5
:10051000C1E70B46024641464846BDE8F08B13B59D
:100520004FF000004FF00001AFF30080BDE81C4029
:10053000704710B5203AC0F00B80B1E81850203A4F
:10054000A0E81850B1E81850A0E81850BFF4F5AF73
:100550005FEA027C24BFB1E81850A0E8185044BFFD
:1005600018C918C0BDE810405FEA827C24BF51F86A
:10057000043B40F8043B08BF7047D20728BF31F85E
:10058000023B48BF11F8012B28BF20F8023B48BFAF
:1005900000F8012B70474FF0000200B51346944657
:1005A0009646203922BFA0E80C50A0E80C50B1F1CB
:1005B0002001BFF4F7AF090728BFA0E80C5048BFDF
:1005C0000CC05DF804EB890028BF40F8042B08BF7D
:1005D000704748BF20F8022B11F0804F18BF00F879
:1005E000012B7047704770477047000070B5064C8C
:1005F0007C44064D7D4403E0206820448047241D50
:10060000AC42F9D170BD00009C5D00009C5D000013
:10061000754600F02BF8AE4605006946534620F0BB
:100620000700854618B020B5FFF7F8FEBDE820406A
:100630004FF000064FF000074FF000084FF0000B9E
:1006400021F00701AC46ACE8C009ACE8C009ACE851
:10065000C009ACE8C0098D46704710B50446AFF339
:1006600000802046BDE81040FFF761BE004870479B
:100670009848002401491820ABBEFEE7260002007E
:100680007047FEE7014800F059BC0000D40900247F
:10069000014800F053BC00006C080024014800F041
:1006A0004DBC0000E4080024014800F047BC0000F5
:1006B0005C090024014800F041BC00007C070024D4
:1006C000014800F03BBC0000F4070024014800F0A2
:1006D00035BC00004C0A0024294A016891423AD0F6
:1006E000274A1832914236D0254A3032914232D0D0
:1006F000234A483291422ED0214A603291422AD078
:100700001F4A7832914226D01D4A9032914222D01F
:100710001B4AA83291421ED01A4A91421BD0194A54
:100720001832914217D0174A3032914213D0154AED
:10073000483291420FD0134A603291420BD0114A95
:100740007832914207D00F4A9032914203D00D4A3D
:10075000A832914211D1CAB21823103AB2FBF3F277
:100760006FF30901032A02F00703074AD25CC2654E
:1007700000D9091D81650846704721F0FF01F9E79E
:1007800010000240100402401463000830B5224AF1
:10079000012301689142CAB21BD01F4C1434A142FC
:1007A00017D01D4C2834A14213D01B4C3C34A1421D
:1007B0000FD0194C5034A1420BD0174C6434A142D5
:1007C00007D0154C7834A14203D0134C8C34A1428D
:1007D0000CD11421114C083AB2FBF1F10F4A8032CE
:1007E00001F01F0504EB8101AB4010E00C4D182413
:1007F000103A0D44B2FBF4F1A82D00D80831094A93
:1008000001F01F0402EB8101064AA34080326030F0
:1008100080E80E0030BD000008540258005802580D
:10082000F0FBFDBF0008024010B50279531E072BF4
:100830002DD8174C0168A1421BD0154C1434A1428D
:1008400017D0134C2834A14213D0114C3C34A14290
:100850000FD00F4C5034A1420BD00D4C6434A14248
:1008600007D00B4C7834A14203D0094C8C34A14200
:1008700003D10849074C443102E00749064C443192
:1008800004EB8202C0E91B2101219940416710BDA0
:1008900008540258FC580258FC08024010B58369FD
:1008A0004FF0C074826A0146002053B1B3F5005F77
:1008B00015D072B1012A0CD0022A0AD0032A09D11C
:1008C00004E01AB1012A06D0022A03D1C96AC9017B
:1008D00000D5012010BDC96AA142FAD010BD002A7E
:1008E000F7D0012AF2D0022AF3D0032AF3D010BDA8
:1008F0000E490F480A6822F080720A600B680022D5
:1009000043F080730B60016821F001010160016810
:1009100041F001010160426000BF00BF00BF4068BC
:1009200008B100207047012070470000FCED00E096
:10093000001000E0704772B6FEE700000548054968
:100940000839026842F00202026008688004FCD59F
:10095000704700000C4802582DE9F84F044601F09A
:1009600065F900903CB194F83500022806D080214A
:1009700061650020E4E00120BDE8F88FC74DC74E57
:10098000C649183520683036DFF81483DFF8149331
:100990008842DFF814A3DFF814B32ED0A8422CD07D
:1009A000B0422AD0404528D0484526D0504524D0D2
:1009B000584522D0BD4A183290421ED0BC4A9042BF
:1009C0001BD0BB4A1832904217D0B94A30329042FD
:1009D00013D0B74A483290420FD0B54A60329042A5
:1009E0000BD0B34A7832904207D0B14A903290424D
:1009F00003D0AF4AA832904209D1026822F01E0209
:100A000002602068426922F08002426103E00268CD
:100A100022F00E02026027688F4238464DD0A8426D
:100A20004BD0B04249D0404547D0484545D05045CD
:100A300043D0584541D09D4A183290423DD09C4AFF
:100A400090423AD09A4A1832904236D0984A303280
:100A5000904232D0964A483290422ED0944A603228
:100A600090422AD0924A7832904226D0904A9032D0
:100A7000904222D08E4AA83290421ED08D4A904297
:100A80001BD08C4A1432904217D08A4A28329042A6
:100A900013D0884A3C3290420FD0864A503290425E
:100AA0000BD0844A6432904207D0824A7832904216
:100AB00003D0804A8C32974204D1206E026822F41F
:100AC0008072026075492068884228D0A84226D0EA
:100AD000B04224D0404522D0484520D050451ED0B9
:100AE00058451CD071491831884218D07049884245
:100AF00015D06F491831884211D06D493031884284
:100B00000DD06B494831884209D06949603188422B
:100B100005D067497831884201D065499031016834
:100B200021F0010101600EE001F080F80099401A07
:100B3000052808D9202262650321002084F8351099
:100B400084F8340017E73868C007EDD1534A012113
:100B5000206890422ED0A8422CD0B0422AD04045E6
:100B600028D0484526D0504524D0584522D04F4B58
:100B7000183398421ED04E4B98421BD04C4B183322
:100B8000984217D04A4B3033984213D0484B4833E1
:100B900098420FD0464B603398420BD0444B783389
:100BA000984207D0424B9033984203D0404BA83331
:100BB000984208D194F85C703F23A06D07F01F079E
:100BC000BB40836007E094F85C30A06D03F01F0326
:100BD00001FA03F34360206890424DD0A8424BD005
:100BE000B04249D0404547D0484545D0504543D014
:100BF000584541D02D4A183290423DD02C4A90425F
:100C00003AD02B4A1832904236D0294A303290429C
:100C100032D0274A483290422ED0254A6032904244
:100C20002AD0234A7832904226D0214A90329042EC
:100C300022D01F4AA83290421ED01E4A90421BD09A
:100C40001C4A1432904217D01A4A2832904213D0CC
:100C5000184A3C3290420FD0164A503290420BD084
:100C6000144A6432904207D0124A7832904203D03C
:100C7000104A8C3290420BD1D4E919024260E06EE6
:100C800030B1026822F480720260D4E91C02426032
:100C9000002084F8351084F834006DE6100002401E
:100CA000580002407000024088000240A00002404C
:100CB00010040240085402582DE9F05F28B190F862
:100CC0003510022904D0802141650120BDE8F09F44
:100CD000904C904B0168183C18338E4ADFF83C92D8
:100CE000A1428D4CDFF838E28E4FDFF83CB2DFF8DE
:100CF0003CA28F4D8F4E31D091422FD099422DD0B2
:100D0000A1422BD0494529D0714527D0B94225D0E1
:100D1000DFF810C20CF1180C61451FD0DFF808C2D3
:100D2000ACF1600C614519D0DFF8FCC1ACF1480CA6
:100D3000614513D0DFF8F0C1ACF1300C61450DD046
:100D4000DFF8E4C1ACF1180C614507D0594505D076
:100D5000514503D0A94201D0B1422CD1DFF8B4C132
:100D60004FF0040880F83580ACF1180C61451DD0B7
:100D700091421BD0994219D0A14217D0494515D0B4
:100D8000714513D0B94211D06648183081420DD058
:100D900065486038814209D063484838814205D0AF
:100DA00061483038814201D05F481838086820F027
:100DB00001000860ABE0D1F800C02CF00E08DFF8AD
:100DC00054C1C1F80080ACF1180C0168614527D00E
:100DD000914225D0994223D0A14221D049451FD02C
:100DE00071451DD0B9421BD0DFF838C10CF1180C89
:100DF000614515D0DFF830C1ACF1600C61450FD012
:100E0000DFF824C1ACF1480C614509D0DFF818C106
:100E1000ACF1300C614503D0DFF80CC1ACF1180C1B
:100E2000D1F800C02CF0010CC1F800C0DFF8E4805C
:100E30004FF0010C0168A8F11808414546D09142D5
:100E400044D0994242D0A14240D049453ED071455C
:100E50003CD0B9423AD0334A1832914236D0324A65
:100E6000603A914232D0304A483A91422ED02E4ACE
:100E7000303A91422AD02C4A183A914226D059450C
:100E800024D0514522D0A94220D0B1421ED02A4AB6
:100E900091421BD0284A1432914217D0264A283258
:100EA000914213D0244A3C3291420FD0224A503210
:100EB00091420BD0204A6432914207D01E4A7832C8
:100EC000914203D01C4A8C32914218D1016E0A68BB
:100ED00022F480720A6090F85C20816D02F01F029B
:100EE0000CFA02F24A60D0E919124A60C16E31B1BF
:100EF0000A6822F480720A60D0E91C124A6000225B
:100F0000016D80F835C080F8342001B18847002099
:100F1000DCE6000028000240580002407000024059
:100F200088000240A0000240700402408804024091
:100F3000A0040240B8040240085402582DE9FC5FA6
:100F40000446F74E0020DFF8D88300904FF4165285
:100F5000F44808F11808A56DDFF8C493DFF8C0A3C2
:100F6000016809F1300920680AF1480AB1FBF2F181
:100F7000B04201912F68D5F800C0DFF8ACB335D08E
:100F80004146884232D0484530D050452ED0584551
:100F90002CD0E5491831884228D0E34930318842C5
:100FA00024D0E1494831884220D0E04988421DD010
:100FB000DE491831884219D0DC493031884215D0D9
:100FC000DA494831884211D0DFF860E30EF1600E53
:100FD00070450BD0D54A7832904207D0D34B90332E
:100FE000984203D0D149A83188427DD194F85C2041
:100FF000082102F01F0201FA02F23A424AD0B0423E
:1010000032D0404530D048452ED050452CD05845A0
:101010002AD0C54A1832904226D0C34A3032904274
:1010200022D0C14A483290421ED0C04A90421BD0C2
:10103000BE4A1832904217D0BC4A3032904213D088
:10104000BA4A483290420FD0B84A603290420BD030
:10105000B64A7832904207D0B44A9032904203D0D8
:10106000B24AA832904203D1026802F0040202E0C0
:10107000026802F008026AB1026822F0040202600B
:1010800094F85C0000F01F008140A960606D40F0A2
:101090000100606594F85C00012100F01F008140B0
:1010A000394240D02068B04234D0404532D0484523
:1010B00030D050452ED058452CD09B4A1832904203
:1010C00028D0994A3032904224D0974A48329042F0
:1010D00020D0964A90421DD0944A1832904219D09E
:1010E000924A3032904200E0AFE113D08F4A48324A
:1010F00090420FD08D4A603290420BD08B4A7832AA
:10110000904207D0894A9032904203D0874AA83251
:1011100090427DD1406910F0800F04D0A960606DCD
:1011200040F00200606594F85C00042100F01F00AC
:10113000814039423ED02068B04232D0404530D064
:1011400048452ED050452CD058452AD0764A1832E2
:10115000904226D0744A3032904222D0724A4832AD
:1011600090421ED0714A90421BD0704A1832904271
:1011700017D06E4A3032904213D06C4A48329042B7
:101180000FD06A4A603290420BD0684A783290425F
:1011900007D0664A9032904203D0644AA832904207
:1011A0004ED1006810F0020F04D0A960606D40F0CD
:1011B0000400606594F85C00102100F01F0081407D
:1011C000394258D02068B04234D0404532D04845EA
:1011D00030D050452ED058452CD0534A183290422A
:1011E00028D0514A3032904224D04F4A483290425F
:1011F00020D04E4A90421DD04C4A1832904219D00D
:101200004A4A3032904215D0484A4832904200E073
:1012100014E00FD0454A603290420BD0434A7832F6
:10122000904207D0414A9032904203D03F4AA832C0
:10123000904207D1006800F0080006E0006872E7FD
:101240000068B7E7006800F00400A0B1A96020685A
:101250000168490304D50068000308D5A16C07E0C4
:101260000168C90503D4016821F008010160216CFF
:1012700009B12046884794F85C00202100F01F0047
:101280008140394279D02068B04232D0404530D0D8
:1012900048452ED050452CD058452AD0224A1832E5
:1012A000904226D0204A3032904222D01E4A483204
:1012B00090421ED01D4A90421BD01C4A18329042C8
:1012C00017D01A4A3032904213D0184A483290420E
:1012D0000FD0164A603290420BD0144A78329042B6
:1012E00007D0124A9032904203D0104AA83290425E
:1012F00003D1006800F0100002E0006800F0020076
:10130000B0B3A96094F835000428206801680FD0B4
:1013100049037ED5006800032BD4616C2AE00000ED
:10132000100002401400002470000240100402402B
:1013300021F0160101602068416921F080014161BE
:10134000206C08B9A06C20B12068016821F0080168
:10135000016094F85C303F21012003F01F0300225C
:101360009940A96084F8350084F83420216D65E047
:1013700003E0E16B09B120468847606D00287DD00D
:10138000606DC00759D02068042184F83510B04240
:101390002BD0404529D0484527D0504525D0584529
:1013A00023D09D49884220D09B49183188421CD0C7
:1013B00099493031884218D09849884215D09749C8
:1013C0001831884211D09549303188420DD0934967
:1013D0004831884209D091496031884205D08F490F
:1013E0007831884201D08D499031016821F00101A6
:1013F000016020680099019A491C0091914202D82D
:101400000168C907F6D10068C00710D003200FE0BB
:10141000FFE70168C905ACD403680121002223F06D
:101420001003036084F8351084F83420A1E701200C
:1014300084F83500002084F83400E16C00291DD0C8
:1014400002B02046BDE8F05F0847754988421DD0CC
:1014500073491431884219D071492831884215D016
:101460006F493C31884211D06D49503188420DD0CE
:101470006B496431884209D0694900E084E07831E1
:10148000884203D066498C3188427DD194F85C80D3
:101490000427016808F01F0807FA08F717EA0C0F7D
:1014A000009746D04F0744D500980F04686003D5D5
:1014B000C8033CD4A16CC1E7880638D42068B04288
:1014C0002DD055496039884229D0484527D050450C
:1014D00025D0584523D05049884220D04E49183154
:1014E00088421CD04C493031884218D04B49884240
:1014F00015D04A491831884211D0484930318842C4
:101500000DD046494831884209D0704507D09042F5
:1015100005D0984203D04149A831884203D10168DF
:1015200021F0080102E0016821F004010160216C52
:1015300084E7022707FA08F717EA0C0F00974ED046
:101540008F074CD500980F04686003D5C80344D4B6
:10155000616C73E7880640D42068B0422FD02E49D2
:10156000603988422BD0484529D0504527D058456E
:1015700025D02949884222D02749183188421ED0D7
:1015800025493031884200E044E018D023498842A0
:1015900015D022491831884211D020493031884273
:1015A0000DD01E494831884209D0704507D090427D
:1015B00005D0984203D01949A831884203D1016867
:1015C00021F0140102E0016821F00A01016001210B
:1015D00084F83510002084F83400E16B2EE70822EF
:1015E00002FA08F212EA0C0F14D0090712D50168AA
:1015F00021F00E01016094F85C100120002201F03E
:101600001F0100FA01F16960606584F8350084F813
:10161000342012E7BDE8FC9F88000240100402401D
:10162000085402582DE9F05F044600F0FFFA002C40
:1016300007467DD0E34E022120684FF00308DFF813
:1016400088934FF00005DFF884A3B042DFF880B341
:1016500034D0DC4A1832904230D048452ED0504524
:101660002CD058452AD0DA4A1832904226D0D84A8F
:101670003032904222D0D64A483290421ED0D54ACB
:1016800090421BD0D34A1832904217D0D14A303200
:10169000904213D0CF4A483290420FD0CD4A6032A8
:1016A00090420BD0CB4A7832904207D0C94A903250
:1016B000904203D0C74AA83290427DD184F83510B9
:1016C000B04284F834502ED0BE49183188422AD016
:1016D000484528D0504526D0584524D0BC4918311B
:1016E000884220D0BA49303188421CD0B8494831AC
:1016F000884218D0B749884215D0B6491831884277
:1017000011D0B449303188420DD0B24948318842B5
:1017100009D0B0496031884205D0AE49783188425D
:1017200001D0AC499031016821F00101016008E06D
:1017300027E100BF00F07AFAC01B052801D920215B
:101740001CE120680068C007F4D104F1080021689A
:10175000D4E9053C8E4685C809681043D4E90728BA
:101760001F43636A38439C4F40EA0C0010433940E2
:1017700040EA0800042B40EA010003D1D4E90B122F
:1017800011430843954909686FF30F01B1F1005FF8
:101790000FD36168A1F12902052A08D9163A032A54
:1017A00005D9083A012A02D94F39032901D840F452
:1017B0008010CEF8000000E023E02068676A4069EE
:1017C000042F20F0070047EA00070DD1D4E90A01F1
:1017D000074349B12046FFF761F828B14020606512
:1017E000012184F83510CCE0206847612046FEF7DF
:1017F00073FF94F85C203F2102F01F02914081604A
:1018000054E0774A90421BD0754B1433984217D05E
:10181000734B2833984213D0714B3C3398420FD00E
:101820006F4B503398420BD06D4B6433984207D0C6
:101830006B4B7833984203D0694B8C3398427DD1FF
:1018400084F8351084F83450664B0168A26801EAC8
:10185000030E402A73D0802A72D00022D4E9037884
:10186000D4E9053142EAD70242EAD8085C4AD4E911
:10187000077C48EAD30848EAD10141EAD70152423D
:1018800041EA1C11142341EA0E0101602068104452
:10189000B0FBF3F08000E0652046FEF71DFF94F8F2
:1018A0005C20012102F01F02914041602068B0429B
:1018B00057D044491831884253D0484551D05045FB
:1018C0004FD058454DD042491831884249D04049FF
:1018D0003031884245D03E494831884241D03D4967
:1018E00088423ED03B49183188423AD0394930319C
:1018F000884236D037494831884232D03549603144
:1019000088422ED03349783188422AD031499031EB
:10191000884226D02F49A831884222D030498842B7
:101920001FD02F49143188421BD02D4928318842BD
:1019300017D02B493C31884213D002E01DE017E05C
:1019400018E02749503188420BD02549643188423C
:1019500007D023497831884203D021498C3188420D
:1019600029D12046FEF712FFA06880280CD00CE099
:10197000102273E74FF4804270E74021616584F8DC
:1019800035800120BDE8F09F6560216E20790860F8
:10199000D4E9190141606068401E072808D8204634
:1019A000FEF742FFE06E0560D4E91C01416002E0F1
:1019B000E566256765670120656584F835000020C8
:1019C000E0E70000100002404000024058000240E2
:1019D00070000240100402403F8010FE0010005CC6
:1019E000085402580F00FEFF2DE9F84F03247D4DE7
:1019F00000234FF001094FF0B04B4FF00F0AE9E020
:101A000009FA03F73A4076D00E7906F00306012E64
:101A100001D0022E18D1D0F808C04FEA430ECE688C
:101A200004FA0EF82CEA080C06FA0EF646EA0C0642
:101A30008660D0F804C00E792CEA070CC6F30016B5
:101A40009E4046EA0C0646600E79F643B6070BD078
:101A5000C6684FEA43088F6804FA08FC26EA0C06B9
:101A600007FA08F73743C7600E7906F00306022E1F
:101A700012D1DE080F694FEA437C00EB8606B646BA
:101A8000366A4FEADC6C0AFA0CF807FA0CF726EA19
:101A900008063743CEF820700F7906684FEA4308EE
:101AA00007F0030704FA08FC07FA08F726EA0C0611
:101AB000374307604E6816F4403F1CD04A4E3768E3
:101AC00047F00207376036689F0706F00206009667
:101AD00023F0030606F1B046B6463F0FD6F8086479
:101AE000DFF808810AFA07FC404526EA0C0603D114
:101AF0004FF0000C41E06CE0DFF8F4C0604502D12B
:101B00004FF0010C39E0DFF8ECC0604502D14FF036
:101B1000020C32E0DFF8E0C0604502D14FF0030C68
:101B20002BE0DFF8D8C0604502D14FF0040C24E070
:101B3000DFF8CCC0604502D14FF0050C1DE0DFF8A6
:101B4000C4C0604502D14FF0060C16E0DFF8B8C003
:101B5000604502D14FF0070C0FE0DFF8B0C06045E0
:101B600002D14FF0080C08E0DFF8A4C0604502D1B4
:101B70004FF0090C01E04FF00A0C0CFA07FC4CEA9C
:101B8000060CCEF808C44F68DBF80060FF0226EAB6
:101B9000020600D516435F46CBF80060D1F804C0BA
:101BA000DBF804605FEA8C2C26EA020600D51643B7
:101BB0007E606E684F6826EA0206BF0300D51643B2
:101BC0006E602E684F6826EA0206FF0300D51643B2
:101BD0002E605B1C0A6832FA03F67FF411AFBDE891
:101BE000F88F000080000058F444025800000258AA
:101BF0000004025800080258000C02580010025855
:101C00000014025800180258001C02580020025804
:101C1000002402580AB1816170470904FBE7000003
:101C200001480068000C70470010005C01488068A3
:101C300070470000080000240248816802781144BF
:101C40008160704708000024032010B500F0FAF806
:101C500001F002F90F4A104914681368C4F3032213
:101C600003F00F038A5CC95C02F01F0201F01F0140
:101C7000D0400A4A20FA01F11160094908600F209A
:101C800000F010F808B1012010BD00F09BF8002012
:101C900010BD0000184402584463000818000024D6
:101CA0001400002410B5102804468AB02AD200225D
:101CB0000146192000F0A6F8192000F095F8154803
:101CC00004601548016841F001010160006808A93D
:101CD00000F001000990684601F04AF801F0AAF806
:101CE0000E49400000220E4CB0FBF1F10D4840F2CD
:101CF000E7330460C0E90332491EC0E9011201F074
:101D00000BFC10B101200AB010BD064801F036FCF2
:101D1000F9E700000C000024F044025840420F0094
:101D200000000140C40A0024154BF0B5083B42787E
:101D300013491A600B680A1F23F001030B60436804
:101D40001360057BC67A827A437B2D07847B45EA44
:101D50000665C77B90F809C0067A90F800E045EA6E
:101D6000C24040EA834040EA444040EA074040EA3B
:101D70000C2040EA460040EA0E000860F0BD00007A
:101D8000A0ED00E0BFF35F8F044800210368034A21
:101D900023F48033036070321160704724ED00E05B
:101DA000074A40F00100064970321060086840F4AC
:101DB00080300860BFF34F8FBFF36F8F7047000014
:101DC00024ED00E0074882B0016841F002010160A3
:101DD000006800220F2100F002000090901E02B067
:101DE00000F010B8F4440258002809DB410900F063
:101DF0001F028900012001F1E0219040C1F800019B
:101E0000704700000E4BF0B41B680D46C3F302236D
:101E1000C3F10706042E00D90426191D072901D293
:101E2000002300E0DB1E012404FA06F19C40491E59
:101E30002940641E994014402143F0BC03F071BC5A
:101E40000CED00E0064900F0070210B54FF6FF0464
:101E50000868044B204040EA02201843086010BD87
:101E60000CED00E00000FA05134970B50A68D24392
:101E7000520705D5096801F00701814213D118E026
:101E80000A6822F0070202430A60FFF7CFFE0A4DFC
:101E90004FF47A760446083D07E000BFFFF7C6FE20
:101EA000001BB04201D9012070BD2868C0438004E6
:101EB000F4D4002070BD00000C48025810B500F0AA
:101EC00085FF05490968054AC1F30211515C01F01B
:101ED0001F01C84010BD00002044025844630008A0
:101EE000494930B5484C0B1D0A68143409681D680F
:101EF000246802F00303C5F30012C1F30531C4F3F3
:101F0000CC04002914FB02F200EE102AF8EE400A7D
:101F100075D03F4A9FED3D1AB7EE000A6BB1DFED79
:101F20003D1A012B01D0022B64D002EE101A116869
:101F3000F8EE422A81EEA22A21E0334C283C2368A5
:101F40009B0612D5344B246801EE901A1168C4F335
:101F5000C104F8EE612AE34001EE903AC1F30801B2
:101F6000F8EE611A81EEA22A0BE001EE901ADFED85
:101F70002B2A00BFF8EE611A116882EEA12AC1F384
:101F8000080101EE901A1168F8EE611A40EE811A0C
:101F900071EE800A62EE200AC1F3462101EE101AAA
:101FA000B8EE411A31EE001AC0EE811ABCEEE11A09
:101FB00080ED001A1168C1F3064101EE101AB8EE67
:101FC000411A31EE001AC0EE811ABCEEE11A80ED22
:101FD000011A1168C1F3066101EE101AB8EE411A38
:101FE00031EE000A80EE801ABCEEC10A80ED020AD2
:101FF00030BD04E001EE901ADFED092ABAE70021B6
:10200000016041608160F3E7284402580000003914
:10201000384402580024744A0090D0030024744CC1
:1020200020BCBE4B494930B5484C0B1D0A681C34D6
:1020300009681D68246802F00303C5F30022C1F398
:102040000551C4F3CC04002914FB02F200EE102A5F
:10205000F8EE400A75D03F4A9FED3D1AB7EE000AF0
:102060006BB1DFED3D1A012B01D0022B64D002EEE3
:10207000101A1168F8EE422A81EEA22A21E0334CB0
:10208000283C23689B0612D5344B246801EE901A35
:102090001168C4F3C104F8EE612AE34001EE903AFE
:1020A000C1F30801F8EE611A81EEA22A0BE001EEFD
:1020B000901ADFED2B2A00BFF8EE611A116882EE4C
:1020C000A12AC1F3080101EE901A1168F8EE611A15
:1020D00040EE811A71EE800A62EE200AC1F34621B9
:1020E00001EE101AB8EE411A31EE001AC0EE811A54
:1020F000BCEEE11A80ED001A1168C1F3064101EE51
:10210000101AB8EE411A31EE001AC0EE811ABCEE78
:10211000E11A80ED011A1168C1F3066101EE101A8F
:10212000B8EE411A31EE000A80EE801ABCEEC10A08
:1021300080ED020A30BD04E001EE901ADFED092ABD
:10214000BAE70021016041608160F3E7284402584A
:1021500000000039404402580024744A0090D00323
:102160000024744C20BCBE4B2DE9FE4F0546DFF821
:10217000E48350F8081B0024F64FC943019005F191
:102180002800264608F12408009008011DD4A86EF6
:1021900050B1B0F5801F0CD0B0F5001F0ED0B0F5D7
:1021A000401F1ED001240FE0386840F40030386032
:1021B00017E00198022102F02DFB03E000980221B4
:1021C00002F0B8FB04000CD026462888C043C005A6
:1021D00023D4A86D05281ED2DFE800F00C11161BD1
:1021E0001B00AA6ED8F8001021F440111143C8F862
:1021F0000010EAE7386840F40030386009E00198E0
:10220000002102F007FB03E00098002102F092FB9E
:10221000044674B100E0012426462888C0438005A6
:1022200028D4E86D80281ED00CDC90B140280ED157
:1022300014E0AA6DD8F8001021F007011143C8F886
:102240000010EAE7C02813D0B0F5807F10D0012439
:102250000FE0386840F40030386009E00198002150
:1022600002F0D8FA03E00098002102F063FB044674
:102270009CB126462888DFF8DC92C04309F12C097E
:1022800040052CD4D5F8A800B0F5800F20D00DDC87
:10229000A0B1B0F5001F0FD115E0EA6DD8F800101D
:1022A00021F4E0711143C8F80010E3E7B0F5C00F66
:1022B00013D0B0F5000F10D001240FE0386840F4BF
:1022C0000030386009E00198002102F0A3FA03E031
:1022D0000098002102F02EFB04467CB12646288897
:1022E000C04300052DD4D5F8AC00B0F1007F21D05B
:1022F0000EDCA8B1B0F1807F10D116E0D5F8A8208F
:10230000D9F8001021F460011143C9F80010E6E784
:10231000B0F1407F13D0B0F1806F10D001240FE0F6
:10232000386840F40030386009E00198002102F07C
:1023300071FA03E00098002102F0FCFA044674B13F
:1023400026462868C04380011FD4E86CD8B1102805
:102350000FD0202812D0302815D0012414E0D5F851
:10236000AC20D9F8001021F0E0611143C9F8001049
:10237000E7E7386840F40030386004E00198022153
:1023800002F048FA044674B126462888C043C004C7
:102390002BD4286EB0F5005F20D00DDCA0B1B0F5D5
:1023A000805F0FD115E06B48EA6C2030016821F0A6
:1023B000300111430160E8E7B0F5405F13D0B0F59C
:1023C000804F10D001240FE0386840F400303860AE
:1023D00009E00198002102F01DFA03E000980021B5
:1023E00002F0A8FA04468CB126462888C04380042F
:1023F00029D4686EB0F5403F23D010DC08B3B0F5A7
:10240000803F14D0B0F5003F0FD115E02A6ED8F808
:10241000001021F4E0411143C8F80010E5E7B0F5E1
:10242000802F0ED0B0F5A02F0BD001240AE0019828
:10243000012102F0EFF903E00098012102F07AFA9D
:10244000044694B126462888C04340042AD4D5F8CF
:10245000B000B0F1405F23D010DC08B3B0F1805F72
:1024600014D0B0F1005F0FD115E06A6ED8F80010FB
:1024700021F4E0211143C8F80010E4E7B0F1804FE7
:102480000ED0B0F1A04F0BD001240AE00198012139
:1024900002F0C0F903E00098012102F04BFA044673
:1024A00074B126462888C04300041FD4286FD8B1D1
:1024B000B0F1805F0ED0B0F1005F10D0012414E0C5
:1024C000D5F8B020D9F8001021F0E0411143C9F847
:1024D0000010E7E7386840F40030386004E0019805
:1024E000012102F097F9044674B126462868C043DA
:1024F000C0011ED4A86CD0B101280ED0022811D082
:10250000032814D0012413E02A6FD8F8001021F01A
:1025100040511143C8F80010E8E7386840F4003033
:10252000386004E00198022102F074F90446ACB16D
:1025300026462868DFF81CB0C043ABF11C0B4002F4
:1025400052D40548016841F480710160FFF76EFBC9
:10255000824611E02C44025800480258FA48AA6CFE
:10256000016821F0030111430160E2E7FFF75EFB20
:10257000A0EB0A00642835D8F4480068C005F5D5FA
:102580008CBBDFF8C4A3B5F8B4100AF1240ADAF85A
:10259000000001F4407100F44070884211D0DAF874
:1025A0000010DAF8002021F4407142F48032CAF8B9
:1025B0000020DAF8002022F48032CAF80020CAF89D
:1025C0000010D5F8B400B0F5807F1AD1FFF72EFBCC
:1025D000029012E0FFF72AFB0299411A41F288307B
:1025E00081420AD9032426462878DFF85CA3C04339
:1025F0000AF1080AC00721D03CE0DAF800008007A1
:10260000E8D5D5F8B410C1F30120032858460DD001
:10261000016821F47C510160B5F8B420DAF80010AB
:10262000C2F30B021143CAF80010DDE7C84A036881
:1026300002EA111223F47C511143ECE7E86F1828E9
:1026400016D005DCA0B1082808D0102804D10AE073
:1026500020280DD028280BD001240AE00198012160
:1026600002F0D8F803E00098012102F063F9044673
:1026700064B126462878C04380071ED4A86F062878
:1026800019D2DFE800F0160C11161616EA6FDAF808
:10269000001021F038011143CAF80010EAE7019850
:1026A000012102F0B7F803E00098012102F042F99D
:1026B00004467CB100E0012426462878C043400748
:1026C0001FD4D5F89400062819D2DFE800F0160CC4
:1026D00011161616AA6FDAF8001021F0070111433F
:1026E000CAF80010E9E70198012102F093F803E02D
:1026F0000098012102F01EF90446A4B100E0012473
:1027000026462878C04380062BD4D5F89000B0F137
:10271000405F24D011DC10B3B0F1805F15D0B0F170
:10272000005F10D116E0D5F89420D9F8001021F000
:1027300007011143C9F80010E3E7B0F1804F0ED054
:10274000B0F1A04F0BD001240AE00198002102F063
:1027500061F803E00098022102F0ECF8044694B11D
:1027600026462878C04340062BD4D5F89C00B0F507
:10277000406F24D011DC10B3B0F5806F15D0B0F5E8
:10278000006F10D116E0D5F89020DAF8001021F093
:10279000E0411143CAF80010E3E7B0F5805F0ED0C6
:1027A000B0F5A05F0BD001240AE00198002102F0EF
:1027B00031F803E00098022102F0BCF8044694B11D
:1027C00026462878C04300062BD4D5F8A000B0F5E3
:1027D000C04F24D011DC10B3B0F5005F15D0B0F5B8
:1027E000804F10D116E0D5F89C20D9F8001021F4C4
:1027F000E0511143C9F80010E3E7B0F5004F0ED0E7
:10280000B0F5204F0BD001240AE00198002102F01E
:1028100001F803E00098022102F08CF8044654B15C
:1028200026462878C04300071ED4D5F88400B0F5AA
:10283000805F0AD00FE0D5F8A020D9F8001021F46D
:1028400060411143C9F80010EBE70098022102F043
:1028500071F800B10126D5F88420DAF8001021F4CF
:1028600040511143CAF800102878C043C00613D461
:10287000D5F89800B0F5807F05D10098022102F0CC
:1028800059F800B10126D5F89820D9F8001021F4A4
:1028900040711143C9F800102868C043000316D4E2
:1028A000D5F8A40038B1B0F5803F09D0B0F5003FAD
:1028B0000BD001240AE00198002101F0ABFF03E0F6
:1028C0000098022102F036F804468CB126462868AA
:1028D000C043400322D4D5F88800B0F5801F11D042
:1028E000B0F5001F13D0B0F5401F15D0012414E03F
:1028F000D5F8A420D9F8001021F440311143C9F8CB
:102900000010E4E7386840F40030386004E00098D4
:10291000012102F00FF804465CB126462868C04346
:10292000C00323D4286DA8B1B0F5803F17D001248F
:102930001BE0D5F88820DAF8001021F4401111438B
:10294000CAF80010EAE700004C4402580048025858
:10295000CFFFFF00386840F40030386004E0019891
:10296000022101F057FF0446E4B126462868C0431F
:10297000800005D40098022101F0DCFF00B101269F
:102980002868C04380031BD4D5F88000B0B1B0F5EF
:10299000807F0FD0B0F5007F10D0B0F5407F0DD014
:1029A00001240CE05A482A6D016821F4803111435A
:1029B0000160DBE7386840F400303860ECB326464D
:1029C0002868C043C00207D46A6FD8F8001021F00D
:1029D00000411143C8F800102868C043C00008D463
:1029E000D5F8B820DBF8001021F480411143CBF872
:1029F00000102868C043800207D4EA6ED8F800109F
:102A000021F080711143C8F800102868C0434000CD
:102A10000CD4DBF8001021F40041CBF80010DBF8F7
:102A20000010D5F8BC201143CBF800102868C04333
:102A300008D437486A6D016800E018E021F0405181
:102A4000114301602868C043000208D4D5F88C20E7
:102A5000DAF8001021F440011143CAF80010287977
:102A60000024C04300F0010020430AD00FE0D5F855
:102A70008020DAF8001021F440711143CAF80010E8
:102A80009EE70198002101F0C5FE00B106462879B5
:102A9000C04300F00200204305D10198012101F05C
:102AA000B9FE00B106462879C04300F00400204377
:102AB00005D10198022101F0ADFE00B1064628794A
:102AC000C04300F00800204305D10098002101F028
:102AD00031FF00B106462879C04300F010002043C2
:102AE00005D10098012101F025FF00B106462879A3
:102AF000C04300F02000044304D10098022101F0FB
:102B000019FF00B916B10120BDE8FE8F0020FBE7D8
:102B10004C4402582DE9F05F04000F467ED0DFF8E8
:102B20003882D8F8000000F00F00B8420CD2D8F874
:102B3000001021F00F013943C8F80010D8F8000048
:102B400000F00F00B84269D12078844D40070AD5C3
:102B50002069296801F07001884204D9296821F0B0
:102B600070010143296020787C4E361D00070AD58C
:102B70006069316801F07001884204D9316821F040
:102B80007001014331602078C0060AD5A069316820
:102B900001F4E061884204D9316821F4E061014325
:102BA00031602078DFF8B4B180060BF1080B0CD54A
:102BB000E1695846DBF8002002F07002914204D926
:102BC000026822F070020A430260207880070AD56A
:102BD000E068296801F00F01884204D9296821F0D2
:102BE0000F01014329602078C0073ED05B49A268ED
:102BF0002868183920F47060104328606068022843
:102C000018D0032819D00968012819D049070029CC
:102C10004ADADFF848A1AAF1080A00E044E0DAF84D
:102C2000002022F007020243CAF80020FEF7FEFF50
:102C3000814612E009688903E9E709688901E6E746
:102C4000C905E4E7FEF7F2FFA0EB090141F2883085
:102C5000814202D90320BDE8F09F6168DAF80000E4
:102C600000F03800B0EBC10FECD1207880070AD516
:102C7000E068296801F00F01884204D2296821F038
:102C80000F0101432960D8F80010404601F00F0100
:102C9000B9420BD9016821F00F0139430160006886
:102CA00000F00F00B84201D00120D4E7207840079F
:102CB0000AD52069296801F07001884204D2296888
:102CC00021F0700101432960207800070AD560696E
:102CD000316801F07001884204D2316821F070013E
:102CE000014331602078C0060AD5A069316801F43B
:102CF000E061884204D2316821F4E061014331602F
:102D0000207880060CD5E1695846DBF8002002F0F7
:102D10007002914204D2026822F070020A430260FB
:102D200000F09AF80E492A682B68C2F3032203F0D8
:102D30000F038A5CC95C02F01F0201F01F01D04042
:102D4000084A20FA01F11160074908600748006845
:102D5000BDE8F05FFEF7A6BF0020005218440258FD
:102D60004463000818000024140000240C00002410
:102D700070B5144C3F220260124A24680832131DB9
:102D8000114D04F00704446016681C1D06F47066BB
:102D90008660166806F00F06C660126802F07002C0
:102DA00002611A6802F0700242611A6802F4E0627D
:102DB0008261226802F07002C261286800F00F0090
:102DC000086070BD104402580020005230B500F079
:102DD00043F80B4A0B490C4B15681468C5F30322E2
:102DE00004F00F048A5C095D02F01F0201F01F016C
:102DF000D040064A20FA01F119601060084630BD43
:102E000018440258446300081800002414000024E9
:102E100000B5FFF7DBFF05490968054AC1F3021158
:102E2000515C01F01F01C84000BD00001C44025865
:102E30004463000800B5FFF7C9FF05490968054A62
:102E4000C1F30221515C01F01F01C84000BD000028
:102E50001C44025844630008454970B54548096858
:102E6000434B103B11F0380208D00111082A03D05F
:102E7000102A0BD0182A0BD0084670BD1968890695
:102E8000FBD51968C1F3C101C84070BD3A4870BD97
:102E90003749374D18310C1D24350A6809682668F2
:102EA0002D6802F0030406F00102C1F30511C5F319
:102EB000CC0515FB02F200EE102AB8EE400AE9B389
:102EC0002F4ADFED2E0AB7EE001A6CB1DFED2D1A96
:102ED000012C01D0022C43D002EE101A1068F8EE3B
:102EE000422A81EEA22A1EE01C68A40611D51B68A6
:102EF00001EE901A1168C3F3C103F8EE612AD840BD
:102F000001EE900AC1F30800F8EE611A81EEA22AE0
:102F10000BE001EE901ADFED1C2A00BFF8EE611AFB
:102F2000106882EEA12AC0F3080001EE900AF8EEC4
:102F3000611A40EE201A31EE810A00E015E022EE1F
:102F4000000A1068C0F34620401C00EE900AF8EE1C
:102F5000600A80EE201ABCEEC10A10EE100A70BDA5
:102F600001EE901ADFED092AD8E7002070BD0000BD
:102F7000104402580090D00340787D0100000039D1
:102F8000304402580024744A0024744C20BCBE4BC8
:102F90002DE9F05F04007DD0FF4F2078FE4D1837FB
:102FA000DFF8F493103DC00748D0D9F80000396825
:102FB00000F03800102815D0182803D101F00300C4
:102FC00002280FD06068B0F5803F12D010B1B0F584
:102FD000A02F18D0286820F480302860286820F4BA
:102FE000802009E02868800328D560680028D2D0B6
:102FF00024E0286840F480302860606888B1FEF7DB
:1030000015FE064609E0286840F480202860F0E7B5
:10301000FEF70CFE801B64286FD828688003F7D564
:103020000CE0FEF703FE064605E000BFFEF7FEFDDE
:10303000801B6428F0D828688003F7D4207841F2F8
:103040000308D54E0C3E800769D5D9F800003968D1
:1030500010F038000ED0182801D188070AD0E06897
:1030600090B3296821F0190101432960FEF7DEFDC4
:10307000824631E02868400702D5E06800288AD0FF
:10308000E168286820F0190008432860FEF7CEFDAB
:10309000824607E0DFE000BFFEF7C8FDA0EB0A00B4
:1030A0000228B9D828684007F6D500BFFEF7B8FD5A
:1030B00040451BD82069402812D0316821F47C316A
:1030C00041EA003030602AE018E000BFFEF7AEFDB4
:1030D000A0EB0A0002289FD828684007F6D5E5E74C
:1030E000306820F47C3040F40030EBE7207C31681D
:1030F00021F0FE4141EA0060E4E70DE1286820F09C
:1031000001002860FEF792FD824605E0FEF78EFD85
:10311000A0EB0A0002288DD828684007F6D4207852
:10312000C0065DD5D9F80000DFF86CB2396800F050
:103130003800ABF1040B082810D0182803D101F097
:10314000030001280AD0E0690028286838D040F040
:1031500080002860FEF76AFD824623E02868C005EB
:1031600023D5E069802876D11FE0206A202821D06D
:10317000316821F0F84141EA8060306030E000BF02
:1031800094F82010DBF8002022F07C5242EA016122
:10319000CBF8001024E000BFFEF748FDA0EB0A00CA
:1031A000022898D82868C005F6D5FEF739FD4045B5
:1031B000E6D8DAE7306820F0F84040F08040DCE7FD
:1031C00020F080002860FEF731FD064605E000BFD4
:1031D000FEF72CFD801B02289DD82868C005F7D477
:1031E0002078000729D56C48616964300029804641
:1031F000016811D041F001010160FEF717FD06469C
:1032000005E000BFFEF712FD801B0228C9D8D8F8E0
:1032100000008007F6D510E021F001010160FEF703
:1032200005FD064605E000BFFEF700FD801B0228F5
:1032300072D8D8F800008007F6D42078800623D50D
:10324000A0690028286810D040F480502860FEF75C
:10325000EDFC064605E036E1FEF7E8FC801B02289F
:103260005AD828688004F7D50EE020F480502860F2
:10327000FEF7DCFC064604E0FEF7D8FC801B0228C3
:103280004AD828688004F7D4207840074FD5DFF863
:103290000C81D8F8001041F48071C8F80010FEF7D6
:1032A000C5FC064605E000BFFEF7C0FC801B642895
:1032B00032D8D8F80000C005F6D5374EA068603681
:1032C00001280AD008B1052813D0306820F0010089
:1032D0003060306820F0040002E0306840F0010007
:1032E0003060A06841F2883A90B1FEF79FFC8046BA
:1032F0000AE0306840F004003060EEE7FEF796FC2C
:10330000A0EB0801514507D830688007F6D50EE0DC
:10331000FEF78CFC804607E084E000BFFEF786FCE9
:10332000A0EB080151457DD830688007F6D4606A6B
:10333000B0B3DFF86480D9F8001008F120084FF628
:10334000F87B08F10409C1F3C2010329A8F1040ABA
:1033500069D00228286820F08070286003D0FEF72A
:1033600065FC044684E0FEF761FC064605E000BF0C
:10337000FEF75CFC801B022877D828688001F7D410
:10338000E26A40F2F331386854F8283F884340EA53
:1033900002101843386004E01044025800480258F4
:1033A000B5E0217B434622894FF4FE0C208A4FF082
:1033B000FE474902267D521E401EA1F50071C2F350
:1033C00008088AB2761E0CEA004042EA080202436C
:1033D000504607EA06610A431A60DAF8002022F034
:1033E0000102CAF80020D9F80020266A22EA0B025E
:1033F00042EAC602C9F80020DAF80010A26921F0FA
:103400000C011143CAF800100168E26921F00201C1
:1034100011430160016841F480310160016841F4A9
:10342000003101E021E027E00160016841F48021E2
:103430000160016841F001010160286840F080707E
:103440002860FEF7F3FB044605E000BFFEF7EEFB45
:10345000001B022809D828688001F7D557E000BF73
:10346000FEF7E4FB001B022802D90320BDE8F09F11
:1034700028688001F4D44AE039680128D8F80000AF
:1034800021D0A26A01F0030393421CD1E26AC1F386
:1034900005118A4217D1216BC0F30802491E8A42E6
:1034A00011D1616BC0F34622491E91420BD1A16B31
:1034B000C0F30642491E914205D1E16BC0F306609C
:1034C000491E814201D00120D0E7A16C4E46D9F8B7
:1034D0000000C0F3CC00814219D0DAF80000554654
:1034E00020F00100CAF80000FEF7A0FB4FEA000739
:1034F000FEF79CFBB842FBD0A26C306820EA0B00C0
:1035000040EAC2003060286840F0010028600020D6
:10351000ACE770477047704710B5040003D094F8CB
:103520003D0010B107E0012010BD002084F83C00F0
:10353000204600F022F8022084F83D002068211D7A
:1035400001F078FB012084F8480084F83E0084F8FC
:103550003F0084F8400084F8410084F8420084F879
:10356000430084F8440084F8450084F8460084F859
:10357000470084F83D00002010BD704790F83D10D2
:10358000012901D001207047174A022180F83D101F
:103590000168CB6843F00103CB600068904214D00F
:1035A000B0F1804F11D0114988420ED010498842A5
:1035B0000BD01049884208D00F49884205D00F49E6
:1035C000884202D00E49884207D181680D4A1140D5
:1035D000062906D0B1F5803F03D0016841F0010112
:1035E000016000207047000000000140000400401E
:1035F00000080040000C004000040140001800409A
:10360000004001400700010070472DE9F0410446E9
:1036100000680027C6680569A90713D5B10711D549
:10362000FA1E026101212177206880698007204607
:1036300002D0FFF7E9FF04E000F08BF8204600F02D
:1036400089F82777680716D5700714D522680220F5
:103650006FF00401116120772068806910F4407FC9
:10366000204602D0FFF7D0FF04E000F072F82046B9
:1036700000F070F82777280715D5300713D5226892
:1036800004206FF00801116120772068C06980076D
:10369000204602D0FFF7B8FF04E000F05AF82046B9
:1036A00000F058F82777E80616D5F00614D52268FA
:1036B00008206FF01001116120772068C06910F4B4
:1036C000407F204602D0FFF79FFF04E000F041F862
:1036D000204600F03FF82777E80708D0F00706D02B
:1036E00021686FF001000861204600F035F82806D7
:1036F00001D4A80408D5300606D521686FF402501D
:1037000008612046FFF706FFE80508D5300606D514
:1037100021686FF4807008612046FFF7FAFE6806A2
:1037200008D5700606D521686FF040000861204674
:1037300000F01CF8A8060AD5B00608D521686FF07D
:10374000200008612046BDE8F041FFF7E4BEBDE877
:10375000F08170477047000000680349884201D13A
:10376000FEF76ABA7047000000000140704730B5AC
:1037700090F88410012918D0012280F88420242197
:10378000C0F888100022202401680B680D6823F01F
:10379000005325F001050D60426601680B60C0F81A
:1037A000884080F88420104630BD022030BD70472C
:1037B000704770B5044690F8840001281DD001229E
:1037C00084F884202420C4F88800206805680268F2
:1037D00022F0010202602068826822F060620A43DF
:1037E0008260204601F0A4FA2268202100201560A2
:1037F000C4F8881084F8840070BD022070BD70B5D4
:10380000044690F8840001281DD0012284F8842009
:103810002420C4F8880020680568026822F00102AC
:1038200002602068826822F060420A43826020467B
:1038300001F07EFA2268202100201560C4F888106B
:1038400084F8840070BD022070BD704770477047D7
:103850002DE9F04107680025044640F60F030226D3
:10386000F8693968BA6818420AD183067ED501F032
:10387000200302F0805C53EA0C0377D0616F7EE195
:10388000D44BDFF854C3134001EA0C0C53EA0C0C80
:103890006CD05FEAC07C0CD05FEAC15C09D54FF008
:1038A000010CC7F820C0D4F8907047F00107C4F8A5
:1038B0009070870709D5D70707D027683E62D4F8EC
:1038C000906046F00406C4F8906046070AD5D60713
:1038D00008D0276804263E62D4F8906046F00206BD
:1038E000C4F8906006070CD501F020061E4308D0EE
:1038F000266808233362D4F8903043F00803C4F8F4
:10390000903003050BD54B0109D526684FF40063B1
:103910003362D4F8903043F02003C4F89030D4F8E8
:103920009030002B3DD0800609D501F0200002F038
:103930008051084303D0616F09B120468847216850
:10394000D4F890008968490602D410F0280F2AD0D4
:10395000204601F0D1FA2068806840061ED5206814
:10396000083050E8001F21F0400100E021E040E86D
:103970000012002AF3D1D4F8800078B1974901658C
:10398000D4F88000FDF798F900280AD0D4F8800018
:10399000016D00E02046BDE8F04108472046FFF7F2
:1039A00056FFBDE8F0812046FFF751FFC4F8905064
:1039B000F7E7D4F86CC02023BCF1010F7ED15FEA99
:1039C000C06C7BD55FEAC16C78D510203862206866
:1039D0008068400673D5D4F88020814910688842F9
:1039E00034D07F491831884230D07D493031884207
:1039F0002CD07B494831884228D0794960318842AF
:103A000024D077497831884220D075499031884256
:103A10001CD07349A831884218D07249884215D009
:103A200070491831884211D06E49303188420DD02A
:103A30006C494831884209D06A496031884205D0D2
:103A400068497831884201D06649903140684FF426
:103A500080770004000C40D0B4F85C1081423CD95F
:103A6000A4F85E00D069B8422FD0216851E8000F59
:103A700020F4807041E80002002AF6D12068083066
:103A800050E8001F21F0010140E80012002AF5D1A2
:103A90002068083050E8001F21F0400140E8001283
:103AA000002AF5D1C4F88C30E566206850E8001F84
:103AB00021F0100140E80012002A01E04AE019E07C
:103AC000F3D1D4F88000FCF747FF2667B4F85C0018
:103AD000B4F85E10401A81B208E0B4F85C1081427C
:103AE0007FF466AFD069B842FAD126672046FFF767
:103AF0005EFE56E7B4F85C00B4F85E10B4F85E20E1
:103B0000401A81B2002AF4D00029F2D0226852E88B
:103B1000000F20F4907042E80007002FF6D1324FDA
:103B2000206800F1080050E8002F02EA070240E890
:103B3000002CBCF1000FF3D1C4F88C30E56665674A
:103B4000226852E8000F20F0100042E80003002B2A
:103B5000F6D1CAE7C60209D5560207D54FF4801040
:103B600038622046BDE8F041FFF770BE06060AD570
:103B700001F0800602F40002164304D0A16F002970
:103B80007FF408AF0DE7420611D54A060FD520464F
:103B9000016851E8002F22F0400241E80024002C87
:103BA000F6D1C0F88830856700F050FBF9E60202D4
:103BB00006D54A0004D52046BDE8F041FFF745BED2
:103BC000C00196D5002994DA2046BDE8F041FFF700
:103BD000EFBD00000100001020010004E74E0008C6
:103BE0001000024010040240FEFFFFEF10B5040079
:103BF00003D0D4F8880010B107E0012010BD0020E8
:103C000084F88400204600F027F82420C4F88800B7
:103C10002068016821F001010160A06A10B120460E
:103C200001F0A8F8204601F091F90128E6D02068BB
:103C3000416821F4904141602068816821F02A01A7
:103C400081602068016841F0010101602046BDE803
:103C5000104001F0F3B800002DE9F04FB7B0054671
:103C6000142130A8FCF797FCC0216846FCF793FCB0
:103C7000FF4C0226FF4940272868083CDFF8F0A3E4
:103C80004FF4806988424FF0000846D10020CDF8FB
:103C900078800222CDE900206846FEF765FA08B177
:103CA000FCF749FEDAF8001041F40021CAF80010D0
:103CB000DAF8000000F400203590206840F00100A0
:103CC000206020680621444600F0010035904FF442
:103CD000C0503090CDE93168CDE93381E64830A954
:103CE000FDF782FEE54EE6493046C6E90017C6E913
:103CF0000274C6E90494B461F46134627462FDF73D
:103D000091FC08B1FCF717FEEE6700220521B563B0
:103D10003420FEF777F834205EE0DA49884260D13B
:103D20000021CDF8788002226846CDE90021FEF717
:103D30001BFA08B1FCF7FFFDDAF8001041F480111E
:103D4000CAF80010DAF8000000F4801035902068FE
:103D500040F004002060206800F0040035902068E6
:103D600040F008002060206844464FF480513091B4
:103D700000F008004FF00808CDE9316430A9339411
:103D8000CDE93480C048FDF72FFE04203090CDE906
:103D90003164BE4830A9CDE93348FDF725FEB74E62
:103DA0004221B74878361830C6E90274C6E904944F
:103DB000B461F46134627462C6E900013046FDF713
:103DC00031FC08B1FCF7B7FDEE6700220521B563B1
:103DD0003520FEF717F83520FEF706F837B0BDE8B6
:103DE000F08FAB494FF0070B884231D10020CDF85E
:103DF00078800221CDE900106846FEF7B5F908B1D8
:103E0000FCF799FDDAF8001041F08041CAF8001083
:103E1000DAF8000000F080403590206840F0100093
:103E20002060206830AA4FF4C07100F0100082E8D2
:103E30004201CDE934B0974830A9CDF8CC80FDF7E8
:103E4000D3FD002205215220FDF7DCFF5220C3E7FD
:103E50009149884247D10021CDF8788002226846F6
:103E6000CDE90021FEF780F908B1FCF764FDDAF82E
:103E7000001041F00041CAF80010DAF8000000F02C
:103E800000403590206840F0100020602068032139
:103E9000444600F01000359008203091CDE931689B
:103EA00030A9CDE933807B48FDF79EFD734E52214A
:103EB0007A48F036C6E90274C6E90494B461F46144
:103EC00034627462C6E900013046FDF7ABFB08B10D
:103ED000FCF731FDEE6700220521B5635320FDF7A5
:103EE00091FF532078E76E49884247D10020CDF8F2
:103EF0007C800122CDE900206846FEF735F908B143
:103F0000FCF719FD5A480830016841F010010160C2
:103F1000006800F010003590206840F0020020603A
:103F200020684FF44041444600F0020035900420E0
:103F30003091CDE9316830A9CDE933805948FDF79A
:103F400053FD594E2A2155481830C6E90274C6E976
:103F50000494B461F46134627462C6E900013046CD
:103F6000FDF760FB08B1FCF7E6FCEE6700220521D7
:103F7000B5632520FDF746FF25202DE74B498842F4
:103F800048D10020CDF878800221CDE900106846A4
:103F9000FEF7EAF808B1FCF7CEFCDAF8001041F4BD
:103FA0000031CAF80010DAF8000000F40030359053
:103FB000206840F00800206020686021309130A91E
:103FC00000F008004446CDE93168CDF8CC80CDE959
:103FD00034B02E48FDF708FD334E2C212F4878369B
:103FE0003030C6E90274C6E90494B461F461346205
:103FF0007462C6E900013046FDF714FB08B1FCF716
:104000009AFCEE6700220521B5632620FDF7FAFE33
:104010002620E1E6264988426AD10020CDF8788042
:104020000221CDE900106846FEF79EF808B1FCF7C2
:1040300082FCDAF8001041F48021CAF80010DAF8A6
:10404000000000F480203590206840F002002060DD
:1040500020684FF44061309130A900F002004446DE
:10406000CDE93168CDF8CC80CDE934B00D4821E000
:10407000E8440258004C0040000002587C0700242D
:10408000100402400050004000080258000C025882
:104090000078004000100258007C004028000240D8
:1040A0000010014000040258E408002400440040CD
:1040B00000480040FDF798FC324E2E213248C6E9F8
:1040C0000274C6E90494B461F46134627462C6E9AE
:1040D00000013046FDF7A6FA08B1FCF72CFCEE67AC
:1040E00000220521B5632720FDF78CFE272073E60B
:1040F000264988427FF472AE0020CDF87C800121F1
:10410000CDE900106846FEF72FF808B1FCF713FC64
:104110001F48016841F020010160006800F02000A4
:104120003590206840F0040020602068C021309164
:1041300030A900F004004446CDE93168CDF8CC80C8
:10414000CDE934B01348FDF74FFC0E4E482112481C
:104150007836C6E90274C6E90494B461F461346245
:104160007462C6E900013046FDF75CFA08B1FCF75D
:10417000E2FBEE6700220521B5634720FDF742FE12
:10418000472029E6D4090024100002400014014011
:10419000F044025800080258400402402DE9F84358
:1041A0000446D0F88800984616460D46202802D0CE
:1041B0000220BDE8F883A5B19EB10021C4F890109B
:1041C0002120C4F888001834FDF730FD814654F8EA
:1041D000100CA687E6872027183CB0F5805F02D038
:1041E00003E00120E5E7206910B12E46002510E02C
:1041F00000260EE08021204601F07EF8C0B9DEB135
:1042000016F8010B21688862B4F85600401EA4F825
:104210005600B4F856004B464FF00002CDF800802F
:104220000028E7D14FF04001204601F065F848B181
:10423000C4F888700320BCE735F8020B2168C0F38E
:104240000800E0E7C4F888700020B2E77047FEE796
:104250002DED048B01F0B4F84FF4FA75284601F007
:10426000DBFA9FED118A114E6F00124C9FED109AF0
:10427000F0EE488A18EE100A2946B0420D4839FE81
:10428000288AA0F1640001F025F9B0EE480A204622
:1042900001F02EFA07480021643801F0FEF8384694
:1042A00001F0BAFAE6E70000D00F493FCDCCCC3D93
:1042B0000000000064480024254808B5016841F06A
:1042C00001010160016801F001010091016841F004
:1042D0000201016000680022114600F00200009017
:1042E0000B20FDF78FFD0B20FDF77EFD0022052141
:1042F0000C20FDF787FD0C20FDF776FD00220D2038
:104300001146FDF77FFD0D20FDF76EFD00220E200A
:104310001146FDF777FD0E20FDF766FD00223820DF
:104320001146FDF76FFD3820FDF75EFD00223920B4
:104330001146FDF767FD3920FDF756FD00223A20B2
:104340001146FDF75FFDBDE808403A20FDF74CBD82
:10435000D844025810B58EB00B491C226846FCF7B1
:10436000E8F80021684601F063FA084C1C2206496F
:104370001C31206007A8FCF7DCF8002107A801F039
:1043800057FA60600EB010BDDC6200080000002427
:104390002DE9F04F87B014216846FCF7FCF842483D
:1043A000016841F080010160016801F08001059120
:1043B000016841F010010160016801F010010591F0
:1043C000016841F002010160016801F002010591FC
:1043D000016841F004010160016801F004010591E8
:1043E000016841F001010160016801F001010591DE
:1043F000016841F00801016000684FF44044DFF8B3
:10440000AC90002200F00800214605904846FDF7D8
:1044100001FCDFF89CA0A610002231465046FDF7B3
:10442000F9FBDFF890B0A711002239465846FDF796
:10443000F1FB4FF4C068204800224146FDF7EAFB3B
:104440001E4800221B21FDF7E5FB009400240125F6
:1044500069464846CDE901540394FDF7C5FA009634
:104460006946CDE9015450460394FDF7BDFA009723
:104470006946CDE9015458460394FDF7B5FACDF8E5
:1044800000806946CDE901540B480394FDF7ACFA6E
:104490001B200090CDE90154084869460394FDF7BC
:1044A000A3FA07B0BDE8F08FE044025800100258AC
:1044B000000402580008025800000258000C02587C
:1044C0001848002110B5164C0C224FF4E13304605B
:1044D000C0E90131C160C0E904128161C1610162BA
:1044E00041628162FFF782FB08B1FCF724FA0D48B4
:1044F0000021FFF784F908B1FCF71DFA09480021F3
:10450000FFF757F908B1FCF716FA0648FFF72FF93D
:10451000002803D0BDE81040FCF70DBA10BD000024
:10452000004C0040DC0200241848002110B5164C55
:104530000C224FF4E1330460C0E90131C160C0E9ED
:1045400004128161C161016241628162FFF74EFB29
:1045500008B1FCF7F0F90D480021FFF750F908B158
:10456000FCF7E9F909480021FFF723F908B1FCF746
:10457000E2F90648FFF7FBF8002803D0BDE8104039
:10458000FCF7D9B910BD00000050004070030024B2
:1045900070B51A4800211A4D0423174C00F10C067F
:1045A000C0E900452215816086E80E008161022481
:1045B000C161950105630162C0E90914FFF716FBAB
:1045C00008B1FCF7B8F90D480021FFF718F908B158
:1045D000FCF7B1F909480021FFF7EBF808B1FCF747
:1045E000AAF90648FFF7C3F8002803D0BDE87040D9
:1045F000FCF7A1B970BD000000780040040400245D
:10460000A086010019480C2210B54FF4E134164B76
:104610000021C0E9003481601023C160C0E90412A8
:1046200081611C02C161C4630162C0E90913FFF723
:10463000DDFA08B1FCF77FF90C480021FFF7DFF83D
:1046400008B1FCF778F909480021FFF7B2F808B182
:10465000FCF771F90548FFF78AF8002803D0BDE898
:104660001040FCF768B910BD007C0040980400249D
:104670001848002110B5164C0C224FF4E1330460A9
:10468000C0E90131C160C0E904128161C161016208
:1046900041628162FFF7AAFA08B1FCF74CF90D48B4
:1046A0000021FFF7ACF808B1FCF745F909480021F3
:1046B000FFF77FF808B1FCF73EF90648FFF757F817
:1046C000002803D0BDE81040FCF735B910BD00004C
:1046D000001001402C0500241848002110B5164C8C
:1046E0000C224FF4E1330460C0E90131C160C0E93C
:1046F00004128161C161016241628162FFF776FA51
:1047000008B1FCF718F90D480021FFF778F808B157
:10471000FCF711F909480021FFF74BF808B1FCF745
:104720000AF90648FFF723F8002803D0BDE8104037
:10473000FCF701B910BD000000440040C005002492
:104740001848002110B5164C0C224FF4E1330460D8
:10475000C0E90131C160C0E904128161C161016237
:1047600041628162FFF742FA08B1FCF7E4F80D48B4
:104770000021FFF744F808B1FCF7DDF809480021F3
:10478000FFF717F808B1FCF7D6F80648FEF7EFFF79
:10479000002803D0BDE81040FCF7CDB810BD0000E4
:1047A00000480040540600241848002110B5164C5B
:1047B0000C224FF4E1330460C0E90131C160C0E96B
:1047C00004128161C161016241628162FFF70EFAE8
:1047D00008B1FCF7B0F80D480021FFF710F808B158
:1047E000FCF7A9F809480021FEF7E3FF08B1FCF740
:1047F000A2F80648FEF7BBFF002803D0BDE8104032
:10480000FCF799B810BD000000140140E806002430
:10481000FEE7FEE72DE9F047454D044689464FF097
:10482000000A2868C04380070AD0414E283E3068FD
:1048300020F080603060FDF7F9F90746B04608E0E7
:104840000120BDE8F08700BFFDF7F0F9C01B02288A
:1048500067D8D8F800000001F6D4206829684FF422
:10486000FE0721F47C313E0241EA00302860207AC4
:10487000A389B4F804C040022D4D2D495B1E227C53
:10488000ACF1010C1035091DA0F5007080B2521E6C
:10489000CCF3080C07EA034340EA0C00184306EA8D
:1048A0000262104328600868626920F0C00010436B
:1048B00008600A68A06922F0200202430A60281DED
:1048C0000A6822F010020A6002684FF6F873E46981
:1048D0009A4342EAC40202600868B9F1000F40F04E
:1048E00010020A6011D00868B9F1010F11D040F42C
:1048F00000100860D8F80000444640F08060C8F816
:104900000000FDF793F905460DE0086840F400202B
:10491000EFE740F48010ECE7FDF788F9401B022830
:1049200001D903208DE720680001F5D5504688E7BE
:10493000284402582DE9F047454D044689464FF07A
:10494000000A2868C04380070AD0414E283E3068DC
:1049500020F080503060FDF769F90746B04608E066
:104960000120BDE8F08700BFFDF760F9C01B0228F9
:1049700067D8D8F800008000F6D4208829684FF462
:10498000FE0721F07C713E0241EA00502860207A47
:10499000A389B4F804C040022D4D2D495B1E227C32
:1049A000ACF1010C1835091DA0F5007080B2521E43
:1049B000CCF3080C07EA034340EA0C00184306EA6C
:1049C0000262104328600868626920F44060104366
:1049D00008600A68A06922F4007202430A60281D78
:1049E0000A6822F480720A6002684FF6F873E4697C
:1049F0009A4342EAC40202600868B9F1000F40F429
:104A000080720A6011D00868B9F1010F11D040F02E
:104A100080700860D8F80000444640F08050C8F824
:104A20000000FDF703F905460DE0086840F480003A
:104A3000EFE740F40000ECE7FDF7F8F8401B022830
:104A400001D903208DE720688000F5D5504688E71E
:104A500028440258012000F0DFFEFBE7502010B58B
:104A600080F31188BFF34F8FBFF36F8F01F068FBA6
:104A700018B104494FF080500860002080F311887D
:104A800010BD000004ED00E030B59DB04C2168463B
:104A9000FBF781FD202113A8FBF77DFD0220FDF728
:104AA000E3F9214800242149026842F440420260AF
:104AB00002680A6842F001020A60096801F0010117
:104AC0001B9101688904FCD50220009040250495C3
:104AD0000121039104220B923C23CDE90904CDE985
:104AE0000C300FAB0E900C2183E813006846129433
:104AF000FEF74EFA08B172B6FEE709221A95CDE923
:104B000016254FF4806313AA3F200321CDE91853E3
:104B100082E81300012113A8FDF7FCFF002801D053
:104B200072B6FEE71DB030BD184802582C0400587C
:104B30003348F0B5334A016841F4700101601068F0
:104B400000F00F00072804D2106820F00F00C01DED
:104B500010602D4900202C4C10340B682B4D43F075
:104B600001030B6020600B682B400B60136803F09F
:104B70000F03072B04D9136823F00F03DB1D136009
:104B8000214C234A1834234B261D371D20601E4C10
:104B9000214D28343060261D3860371D23603B1DB1
:104BA00035601C1D3A60251D2E1D1860331D2260C6
:104BB0002860326018600A68134B184C22F4802277
:104BC00060330A60186020686FF30F00B0F1005F77
:104BD00003D213490120C1F808010B48D430016801
:104BE000C9040BD4026843F2D2010E4B42F4805246
:104BF00002601960016821F480510160F0BD00007D
:104C000088ED00E000200052004402587FEDF6EAF3
:104C100080020101000202020000FF010010005C9E
:104C200000800051004000520148FEF7EEBC000039
:104C3000C40A00242DE9F047294B4FF0804A294D42
:104C400002689842284E294F294C09D0504507D078
:104C5000A84205D0B04203D0B84201D0A04205D14D
:104C6000D1F804C022F070024CEA0202DFF884C0DE
:104C7000DFF884809842DFF884900FD050450DD043
:104C8000A8420BD0B04209D0B84207D0A04205D00C
:104C9000604503D0404501D0484503D1CD6822F49A
:104CA00040722A438E684D6922F08002C6620E6807
:104CB0002A439842866207D0A04205D0604503D0BF
:104CC000404501D0484501D10969016303680121CC
:104CD00043F00403036041610260BDE8F087000017
:104CE000000001400004004000080040000C0040AB
:104CF00000040140004001400044014000480140E0
:104D00000148FEF7A5BD0000DC0200240148FEF7C3
:104D10009FBD0000700300240148FEF799BD00000C
:104D2000040400240148FEF793BD00009804002409
:104D300030B5416EB9B101680D4B03F108048A68C2
:104D40008968C2F34262490F5D5C615C2D01B5FB6D
:104D5000F1F1A0F86A10995CA25C0901B1FBF2F1D3
:104D6000A0F8681030BD0121A0F86A10F8E7000033
:104D70003463000890F82810090706D50168836B92
:104D80004A6822F400421A434A6090F82810C90782
:104D900006D00168C36A4A6822F400321A434A60A6
:104DA00090F82810890706D50168036B4A6822F439
:104DB00080321A434A6090F82810490706D50168E6
:104DC000436B4A6822F480221A434A6090F8281004
:104DD000C90606D50168C36B8A6822F480521A435B
:104DE0008A6090F82810890606D50168036C8A68E5
:104DF00022F400521A438A6090F82810490611D50F
:104E00000168436C4A6822F480121A434A60416C7C
:104E1000B1F5801F06D10168836C4A6822F4C00294
:104E20001A434A6090F82810090606D50168C26C3A
:104E3000486820F400201043486070472DE9F8438B
:104E400000250446C0F89050FCF7F0FE804620682C
:104E500020266FF07E470068000713D500224346E6
:104E600031042046009700F047FA58B1216851E814
:104E7000000F20F0800041E80002002AF6D1C4F8BB
:104E8000886021E020680068400722D50022434660
:104E90004FF480012046009700F02EFAC8B1206838
:104EA00050E8001F21F4907140E80012002AF6D16A
:104EB0002068083050E8001F21F0010140E800128E
:104EC000002AF5D1C4F88C60032084F88450BDE832
:104ED000F883C4F88860C4F88C60E5662567002014
:104EE00084F88450F3E710B5806B0021A0F85E10C1
:104EF000FEF7ADFC10BD000010B5026852E8001FBF
:104F000021F4907142E80013002BF6D10E4B026899
:104F1000083252E8001F194042E80014002CF6D174
:104F2000C16E012908D1026852E8001F21F010016A
:104F300042E80013002BF6D100212022C0F88C207B
:104F4000C166416710BD0000FEFFFFEF2DE9F04391
:104F500004468068D84E87B0D84B2168D4E904272E
:104F6000D4F81CC010430A68002547EA0C073843F0
:104F7000324002430A602068E268416821F44051EF
:104F8000114341602268A1699A4201D0206A01431D
:104F90009768DFF82CC3CB4ECB4807EA0C070F43CA
:104FA00097602168676ACA6A22F00F023A43CA62B0
:104FB0002268B2420ED1006800F03800182873D081
:104FC00047DCB8B3082879D010286FD178E02828BA
:104FD0007ED17BE0BD498A4209D1006800F007001C
:104FE000062875D2DFE800F0546A6C6E7072B8491A
:104FF0008A4209D1006800F00700062868D2DFE87D
:1050000000F0475D5F616365B2498A4209D100687B
:1050100000F0070006285BD2DFE800F03A50525457
:105020005658AD498A420BD1006800F007000628A7
:105030004ED200E010E0DFE800F02B414345474945
:10504000A6498A420AD1006800F03800182839D0F1
:10505000B7DD2028BBD13CE001203AE0A0498A42DC
:1050600009D1006800F00700062831D2DFE800F01F
:105070001026282A2C2E9B498A420BD1006800F06A
:105080000700062824D2DFE800F003191B1D1F21AA
:1050900000201EE09A421BD18B48001D006800F0E2
:1050A0000700062814D202E00CE007E010E0DFE879
:1050B00000F0030507090B0D02200AE0042008E0B8
:1050C000082006E0102004E0202002E0402000E05C
:1050D00080208549DFF814829A42854A4FF40043C4
:1050E0004FEA21174FF000064ED110281AD006DCE7
:1050F000022809D004280BD008287CD10DE02028F4
:105100003ED0402877D13DE0FCF7D8FE014610E0C4
:105110006846FCF7E5FE01990BE003A8FCF782FF67
:10512000049906E01068800605D51068C0F3C10038
:10513000C140002970D0606A676838F8102007EB1A
:105140004703B1FBF2F0834255D8B0EB073F52D88A
:10515000002308461946FBF775F902467808130E36
:10516000120243EA012110183A4671410023FBF76D
:1051700069F9604AA0F5407191423CD821688FE0FE
:105180003946D8E71946D6E7D4F81CC04FF6EF7970
:105190009C4546D1082819D005DC58B101280CD00F
:1051A000042875D10DE0102815D0202835D04028CE
:1051B0006ED134E0FDF72CFE01E0FDF73BFE014629
:1051C00010E06846FCF78CFE01990BE003A8FCF7A1
:1051D00029FF049906E01068800604D51068C0F322
:1051E000C100C140C1B1636A606838F81330B1FBD7
:1051F000F3F1490000E04BE001EB5001B1FBF0F0AE
:10520000A0F11001494543D84FF6F0732168C0F36F
:1052100042021840104343E043E03946E3E71946B1
:10522000E1E7082819D005DC58B101280CD0042882
:105230002ED10DE0102815D020282BD0402827D1C2
:105240002AE0FDF7E5FD01E0FDF7F4FD014610E081
:105250006846FCF745FE01990BE003A8FCF7E2FE67
:10526000049906E01068800604D51068C0F3C100F8
:10527000C140B1B1636A606838F81330B1FBF3F133
:1052800001EB5001B1FBF0F0A0F11001494505D947
:10529000012506E03946EDE71946EBE7216880B2C3
:1052A000C8600120A4F86A00A4F868002846666770
:1052B000A66707B0BDE8F083F369FFCF000C005884
:1052C000FFF4FF1100100140544402580044004014
:1052D00000480040004C00400050004000140140D5
:1052E00000780040007C00400090D0031C63000860
:1052F00000440258FFFC0F002DE9F047994617467D
:105300000D460446089E4FF0000833E0701C31D073
:10531000FCF78CFCA0EB0900B04218D8BEB12068A5
:105320000168490726D5802D24D0402D22D0C1699F
:10533000C94309070DD4082505622046FFF7DCFDA7
:10534000C4F89050012084F88480BDE8F0870320E1
:10535000FBE7C069C04300050CD421684FF400602E
:1053600008622046FFF7C8FD2021C4F8901084F899
:105370008480ECE72068C06935EA000004D0002092
:10538000B842C3D00020E0E70120F9E70148FEF76A
:105390005FBA00002C0500240148FEF759BA00004E
:1053A000C00500240148FEF753BA0000540600244B
:1053B0000148FEF74DBA0000E8060024FEE70000B1
:1053C00000B5A7B01449684600F054F98C22014694
:1053D0001248FBF7AEF89FED120A23A8B0EE401A70
:1053E000F0EE400A00F09AF90DC80C4900EE100AE0
:1053F0008C3101EE103A00EE902A81E80D0007484A
:1054000000F02AF805484FF4FA7100F063F8FBF752
:105410006FFA27B000BD00002C05002400480024CE
:105420000000000030B58278C47803791444094A3A
:10543000234413800023C91E05E0C41815885B1C93
:1054400064792C4414808B42F7DB1078C043C0B2DF
:1054500030BD00008400002410B504462DED028B01
:10546000F0EE608A80ED1E0AC0ED1F0A80ED201A62
:105470006430B0EE418A00F03BF9B0EE680A04F106
:105480006A0000F035F9B0EE480ABDEC028B04F179
:105490007000BDE8104000F02BB910B50229044699
:1054A00017D801EB4100214604EB4000643000F0C6
:1054B00001F9204600F080F8D4F888000A224FF461
:1054C0007A732146FEF76AFE2046BDE8104000F0E0
:1054D00013B810BD70B504460D46643000F005F9F0
:1054E00004F16A00294600F000F904F17000294631
:1054F000BDE8704000F0F9B870B5D0F888002749D1
:10550000274C00684D15421A88423DD00CDC2549D5
:10551000401827D04FF4806188422BD0B0F5006F3F
:105520003AD1214C002209E0B2F5404F10D0B2F53B
:10553000444F31D11D4C00224FF480712046FCF7BE
:1055400069FB012229462046BDE87040FCF762BB9A
:10555000174C00224FF480512046FCF75BFB0122E0
:105560005103F0E7002220460821FCF753FB0122FB
:105570001021E8E70F4C00224FF480412046FCF751
:1055800049FB0122D103DEE7002220460121FCF77E
:1055900041FB01220221D6E770BD0000005000400F
:1055A000000C025800BCFFBF00000258000802585F
:1055B000000402580010025870B5D0F8880026493F
:1055C000264C00684D15421A88423CD00CDC244918
:1055D000401826D04FF4806188422AD0B0F5006F81
:1055E00039D1204C012208E0B2F5404F0FD0B2F57E
:1055F000444F30D101221C4C11022046FCF70AFB1B
:10560000002229462046BDE87040FCF703BB174C3A
:10561000012211032046FCF7FDFA00224FF400514D
:10562000F0E7012220460821FCF7F4FA00221021BD
:10563000E8E70F4C012291032046FCF7EBFA002229
:105640004FF40041DEE7012220461146FCF7E2FA62
:1056500000220221D6E770BD00500040000C025825
:1056600000BCFFBF000002580008025800040258A6
:10567000001002589FED0E0A80ED1E0A80ED1F0AF1
:1056800080ED200AC0F888100121446661F307020A
:1056900080F868200221C0F86A4061F3070280F8B0
:1056A0006E200321046761F3070280F874207047BD
:1056B0000000000010B50C4655210722217001237F
:1056C00061700179A170E2702371017861710188C4
:1056D000090AA1718178E17107214088000A2072CE
:1056E0002046FFF79FFE607210BD418070470000AA
:1056F000DFED071A9FED071ADFED070A80EE212A7A
:1057000042EE010ABCEEE00A10EE101A018070476A
:10571000D00F494000803B440000FA4380EC030A6C
:105720007047090700284FEA116104DB00F1E0200F
:1057300080F80014704700F00F0000F1E02080F8BE
:10574000141D704710B50D482DED028B9FED0C8A8E
:10575000B0EE481AF0EE480AB0EE480AFFF7DEFF56
:10576000B0EE481AF0EE480AB0EE480ABDEC028BE3
:105770000248BDE810401430FFF7D0BF784800243D
:10578000000000001FB500240094019402940394CB
:10579000FCF7F8FA01208DF80C001F218DF8081095
:1057A00087228DF809208DF80D008DF800006846DD
:1057B0008DF80A408DF80E408DF8014001948DF867
:1057C0000B408DF80F40FCF7AFFA0420FCF7E8FA25
:1057D000FCF73AFAFFF758F9FEF7DAFDFEF76CFD31
:1057E000FEF746FFFEF778FFFEF7AAFFFEF768FE1A
:1057F000FEF79AFEFEF7D8FFFEF7CAFEFEF702FF9D
:10580000FEF7A8FD00F00FF8FEE7842801464FF0F0
:10581000000000D0C81C704710B500B9012000F08E
:105820002BFB002010BD10B500F04CFB002010BD7C
:105830007FB50D4641690446B0F9080081B1A16900
:1058400071B1FFF7E2FFD4E905122B468DE807009E
:105850002269D4E9001000F048FC039004B070BD48
:10586000FFF7D3FF03A92B46CDE90001228AD4E933
:10587000001092B200F00CFC012801D00020EDE7EE
:105880000398EBE72DE9F041184C0F460546E66812
:105890002068001D00F026FA38B92268012120692D
:1058A00092F82C20914088432061681C07D137B1C1
:1058B0002168BDE8F0410E48091D00F059BA206882
:1058C0003544B5424560216805D2A06B091DBDE88D
:1058D000F04100F035BA606B091D00F031FAA06AA2
:1058E000854200D2A562BDE8F08100001C000024C2
:1058F000EC0B00242DE9F041054600F045FA2E4C52
:105900002E4FA068401CA060206810B1606940B3B1
:105910002DE02560A068012829D1002606EB86002D
:1059200007EB800000F0FEF9761C072EF6D3234823
:105930008C3000F0F7F92148A03000F0F3F91F484F
:10594000B43000F0EFF91D48C83000F0EBF91B4807
:10595000DC3000F0E7F919488C3060631430A06344
:1059600005E0E86A2168C96A814200D82560012003
:10597000616A491C6162E96A2269884010432061BA
:1059800001EB8100291D07EB800000F0F1F900F028
:105990001BFA606900280CD02068E96AC06A884256
:1059A00007D207494FF080500860BFF34F8FBFF315
:1059B0006F8FBDE8F08100001C000024100B002454
:1059C00004ED00E010B5044690F8510058B10128EC
:1059D0000CD002280FD0502080F31188BFF34F8FD6
:1059E000BFF36F8FFEE7206B00F002FA2046BDE8A0
:1059F000104000F0FDB910BD11484FF4705110B5C2
:105A0000420706D00E49C01D20F00700411AC1F51B
:105A100070510C4C002301440839A4F1180221F004
:105A20000701C4E900030C1A11604B600B60C0E968
:105A3000001494604FF000415460516110BD0000AB
:105A4000000C002470000024144E4FF08058144CB9
:105A5000DFF85090A6F1C80712E000BF00F094F9FB
:105A6000F068C568281D00F03DF9A068401EA060E0
:105A70006068401E606000F0A7F92846FFF7A2FFAB
:105A800060680028EAD138680128F9D9C9F800808F
:105A9000BFF34F8FBFF36F8FF2E70000D80B0024E6
:105AA0001C00002404ED00E02DE9F0479A468146F1
:105AB0006FF00303DDE9098403EB8202089E206B8B
:105AC000104420F00707780707D0502080F3118892
:105AD000BFF34F8FBFF36F8FFEE74FF0000561B14B
